{
  "contractName": "Collactables",
  "abi": [
    {
      "inputs": [],
      "stateMutability": "nonpayable",
      "type": "constructor"
    },
    {
      "anonymous": false,
      "inputs": [
        {
          "indexed": true,
          "internalType": "address",
          "name": "account",
          "type": "address"
        },
        {
          "indexed": true,
          "internalType": "address",
          "name": "operator",
          "type": "address"
        },
        {
          "indexed": false,
          "internalType": "bool",
          "name": "approved",
          "type": "bool"
        }
      ],
      "name": "ApprovalForAll",
      "type": "event"
    },
    {
      "anonymous": false,
      "inputs": [
        {
          "indexed": false,
          "internalType": "address",
          "name": "account",
          "type": "address"
        }
      ],
      "name": "Paused",
      "type": "event"
    },
    {
      "anonymous": false,
      "inputs": [
        {
          "indexed": true,
          "internalType": "bytes32",
          "name": "role",
          "type": "bytes32"
        },
        {
          "indexed": true,
          "internalType": "bytes32",
          "name": "previousAdminRole",
          "type": "bytes32"
        },
        {
          "indexed": true,
          "internalType": "bytes32",
          "name": "newAdminRole",
          "type": "bytes32"
        }
      ],
      "name": "RoleAdminChanged",
      "type": "event"
    },
    {
      "anonymous": false,
      "inputs": [
        {
          "indexed": true,
          "internalType": "bytes32",
          "name": "role",
          "type": "bytes32"
        },
        {
          "indexed": true,
          "internalType": "address",
          "name": "account",
          "type": "address"
        },
        {
          "indexed": true,
          "internalType": "address",
          "name": "sender",
          "type": "address"
        }
      ],
      "name": "RoleGranted",
      "type": "event"
    },
    {
      "anonymous": false,
      "inputs": [
        {
          "indexed": true,
          "internalType": "bytes32",
          "name": "role",
          "type": "bytes32"
        },
        {
          "indexed": true,
          "internalType": "address",
          "name": "account",
          "type": "address"
        },
        {
          "indexed": true,
          "internalType": "address",
          "name": "sender",
          "type": "address"
        }
      ],
      "name": "RoleRevoked",
      "type": "event"
    },
    {
      "anonymous": false,
      "inputs": [
        {
          "indexed": true,
          "internalType": "address",
          "name": "operator",
          "type": "address"
        },
        {
          "indexed": true,
          "internalType": "address",
          "name": "from",
          "type": "address"
        },
        {
          "indexed": true,
          "internalType": "address",
          "name": "to",
          "type": "address"
        },
        {
          "indexed": false,
          "internalType": "uint256[]",
          "name": "ids",
          "type": "uint256[]"
        },
        {
          "indexed": false,
          "internalType": "uint256[]",
          "name": "values",
          "type": "uint256[]"
        }
      ],
      "name": "TransferBatch",
      "type": "event"
    },
    {
      "anonymous": false,
      "inputs": [
        {
          "indexed": true,
          "internalType": "address",
          "name": "operator",
          "type": "address"
        },
        {
          "indexed": true,
          "internalType": "address",
          "name": "from",
          "type": "address"
        },
        {
          "indexed": true,
          "internalType": "address",
          "name": "to",
          "type": "address"
        },
        {
          "indexed": false,
          "internalType": "uint256",
          "name": "id",
          "type": "uint256"
        },
        {
          "indexed": false,
          "internalType": "uint256",
          "name": "value",
          "type": "uint256"
        }
      ],
      "name": "TransferSingle",
      "type": "event"
    },
    {
      "anonymous": false,
      "inputs": [
        {
          "indexed": false,
          "internalType": "string",
          "name": "value",
          "type": "string"
        },
        {
          "indexed": true,
          "internalType": "uint256",
          "name": "id",
          "type": "uint256"
        }
      ],
      "name": "URI",
      "type": "event"
    },
    {
      "anonymous": false,
      "inputs": [
        {
          "indexed": false,
          "internalType": "address",
          "name": "account",
          "type": "address"
        }
      ],
      "name": "Unpaused",
      "type": "event"
    },
    {
      "inputs": [],
      "name": "DEFAULT_ADMIN_ROLE",
      "outputs": [
        {
          "internalType": "bytes32",
          "name": "",
          "type": "bytes32"
        }
      ],
      "stateMutability": "view",
      "type": "function"
    },
    {
      "inputs": [],
      "name": "EscapeRoomCounter",
      "outputs": [
        {
          "internalType": "uint256",
          "name": "",
          "type": "uint256"
        }
      ],
      "stateMutability": "view",
      "type": "function"
    },
    {
      "inputs": [
        {
          "internalType": "address",
          "name": "",
          "type": "address"
        }
      ],
      "name": "EscaperoomAdmins",
      "outputs": [
        {
          "internalType": "uint256",
          "name": "",
          "type": "uint256"
        }
      ],
      "stateMutability": "view",
      "type": "function"
    },
    {
      "inputs": [
        {
          "internalType": "uint256",
          "name": "",
          "type": "uint256"
        }
      ],
      "name": "Escaperooms",
      "outputs": [
        {
          "internalType": "uint256",
          "name": "_Id",
          "type": "uint256"
        },
        {
          "internalType": "string",
          "name": "_Name",
          "type": "string"
        },
        {
          "internalType": "address",
          "name": "_Admin",
          "type": "address"
        },
        {
          "internalType": "uint256",
          "name": "_TotalCollactables",
          "type": "uint256"
        },
        {
          "internalType": "uint256",
          "name": "_TotalGivenAway",
          "type": "uint256"
        }
      ],
      "stateMutability": "view",
      "type": "function"
    },
    {
      "inputs": [],
      "name": "MINTER_ROLE",
      "outputs": [
        {
          "internalType": "bytes32",
          "name": "",
          "type": "bytes32"
        }
      ],
      "stateMutability": "view",
      "type": "function"
    },
    {
      "inputs": [],
      "name": "PAUSER_ROLE",
      "outputs": [
        {
          "internalType": "bytes32",
          "name": "",
          "type": "bytes32"
        }
      ],
      "stateMutability": "view",
      "type": "function"
    },
    {
      "inputs": [
        {
          "internalType": "address",
          "name": "account",
          "type": "address"
        },
        {
          "internalType": "uint256",
          "name": "id",
          "type": "uint256"
        }
      ],
      "name": "balanceOf",
      "outputs": [
        {
          "internalType": "uint256",
          "name": "",
          "type": "uint256"
        }
      ],
      "stateMutability": "view",
      "type": "function"
    },
    {
      "inputs": [
        {
          "internalType": "address[]",
          "name": "accounts",
          "type": "address[]"
        },
        {
          "internalType": "uint256[]",
          "name": "ids",
          "type": "uint256[]"
        }
      ],
      "name": "balanceOfBatch",
      "outputs": [
        {
          "internalType": "uint256[]",
          "name": "",
          "type": "uint256[]"
        }
      ],
      "stateMutability": "view",
      "type": "function"
    },
    {
      "inputs": [
        {
          "internalType": "address",
          "name": "account",
          "type": "address"
        },
        {
          "internalType": "uint256",
          "name": "id",
          "type": "uint256"
        },
        {
          "internalType": "uint256",
          "name": "value",
          "type": "uint256"
        }
      ],
      "name": "burn",
      "outputs": [],
      "stateMutability": "nonpayable",
      "type": "function"
    },
    {
      "inputs": [
        {
          "internalType": "address",
          "name": "account",
          "type": "address"
        },
        {
          "internalType": "uint256[]",
          "name": "ids",
          "type": "uint256[]"
        },
        {
          "internalType": "uint256[]",
          "name": "values",
          "type": "uint256[]"
        }
      ],
      "name": "burnBatch",
      "outputs": [],
      "stateMutability": "nonpayable",
      "type": "function"
    },
    {
      "inputs": [
        {
          "internalType": "bytes32",
          "name": "role",
          "type": "bytes32"
        }
      ],
      "name": "getRoleAdmin",
      "outputs": [
        {
          "internalType": "bytes32",
          "name": "",
          "type": "bytes32"
        }
      ],
      "stateMutability": "view",
      "type": "function"
    },
    {
      "inputs": [
        {
          "internalType": "bytes32",
          "name": "role",
          "type": "bytes32"
        },
        {
          "internalType": "uint256",
          "name": "index",
          "type": "uint256"
        }
      ],
      "name": "getRoleMember",
      "outputs": [
        {
          "internalType": "address",
          "name": "",
          "type": "address"
        }
      ],
      "stateMutability": "view",
      "type": "function"
    },
    {
      "inputs": [
        {
          "internalType": "bytes32",
          "name": "role",
          "type": "bytes32"
        }
      ],
      "name": "getRoleMemberCount",
      "outputs": [
        {
          "internalType": "uint256",
          "name": "",
          "type": "uint256"
        }
      ],
      "stateMutability": "view",
      "type": "function"
    },
    {
      "inputs": [
        {
          "internalType": "bytes32",
          "name": "role",
          "type": "bytes32"
        },
        {
          "internalType": "address",
          "name": "account",
          "type": "address"
        }
      ],
      "name": "grantRole",
      "outputs": [],
      "stateMutability": "nonpayable",
      "type": "function"
    },
    {
      "inputs": [
        {
          "internalType": "bytes32",
          "name": "role",
          "type": "bytes32"
        },
        {
          "internalType": "address",
          "name": "account",
          "type": "address"
        }
      ],
      "name": "hasRole",
      "outputs": [
        {
          "internalType": "bool",
          "name": "",
          "type": "bool"
        }
      ],
      "stateMutability": "view",
      "type": "function"
    },
    {
      "inputs": [
        {
          "internalType": "address",
          "name": "account",
          "type": "address"
        },
        {
          "internalType": "address",
          "name": "operator",
          "type": "address"
        }
      ],
      "name": "isApprovedForAll",
      "outputs": [
        {
          "internalType": "bool",
          "name": "",
          "type": "bool"
        }
      ],
      "stateMutability": "view",
      "type": "function"
    },
    {
      "inputs": [
        {
          "internalType": "address",
          "name": "to",
          "type": "address"
        },
        {
          "internalType": "uint256",
          "name": "id",
          "type": "uint256"
        },
        {
          "internalType": "uint256",
          "name": "amount",
          "type": "uint256"
        },
        {
          "internalType": "bytes",
          "name": "data",
          "type": "bytes"
        }
      ],
      "name": "mint",
      "outputs": [],
      "stateMutability": "nonpayable",
      "type": "function"
    },
    {
      "inputs": [
        {
          "internalType": "address",
          "name": "to",
          "type": "address"
        },
        {
          "internalType": "uint256[]",
          "name": "ids",
          "type": "uint256[]"
        },
        {
          "internalType": "uint256[]",
          "name": "amounts",
          "type": "uint256[]"
        },
        {
          "internalType": "bytes",
          "name": "data",
          "type": "bytes"
        }
      ],
      "name": "mintBatch",
      "outputs": [],
      "stateMutability": "nonpayable",
      "type": "function"
    },
    {
      "inputs": [],
      "name": "pause",
      "outputs": [],
      "stateMutability": "nonpayable",
      "type": "function"
    },
    {
      "inputs": [],
      "name": "paused",
      "outputs": [
        {
          "internalType": "bool",
          "name": "",
          "type": "bool"
        }
      ],
      "stateMutability": "view",
      "type": "function"
    },
    {
      "inputs": [
        {
          "internalType": "bytes32",
          "name": "role",
          "type": "bytes32"
        },
        {
          "internalType": "address",
          "name": "account",
          "type": "address"
        }
      ],
      "name": "renounceRole",
      "outputs": [],
      "stateMutability": "nonpayable",
      "type": "function"
    },
    {
      "inputs": [
        {
          "internalType": "bytes32",
          "name": "role",
          "type": "bytes32"
        },
        {
          "internalType": "address",
          "name": "account",
          "type": "address"
        }
      ],
      "name": "revokeRole",
      "outputs": [],
      "stateMutability": "nonpayable",
      "type": "function"
    },
    {
      "inputs": [
        {
          "internalType": "address",
          "name": "from",
          "type": "address"
        },
        {
          "internalType": "address",
          "name": "to",
          "type": "address"
        },
        {
          "internalType": "uint256[]",
          "name": "ids",
          "type": "uint256[]"
        },
        {
          "internalType": "uint256[]",
          "name": "amounts",
          "type": "uint256[]"
        },
        {
          "internalType": "bytes",
          "name": "data",
          "type": "bytes"
        }
      ],
      "name": "safeBatchTransferFrom",
      "outputs": [],
      "stateMutability": "nonpayable",
      "type": "function"
    },
    {
      "inputs": [
        {
          "internalType": "address",
          "name": "from",
          "type": "address"
        },
        {
          "internalType": "address",
          "name": "to",
          "type": "address"
        },
        {
          "internalType": "uint256",
          "name": "id",
          "type": "uint256"
        },
        {
          "internalType": "uint256",
          "name": "amount",
          "type": "uint256"
        },
        {
          "internalType": "bytes",
          "name": "data",
          "type": "bytes"
        }
      ],
      "name": "safeTransferFrom",
      "outputs": [],
      "stateMutability": "nonpayable",
      "type": "function"
    },
    {
      "inputs": [
        {
          "internalType": "address",
          "name": "operator",
          "type": "address"
        },
        {
          "internalType": "bool",
          "name": "approved",
          "type": "bool"
        }
      ],
      "name": "setApprovalForAll",
      "outputs": [],
      "stateMutability": "nonpayable",
      "type": "function"
    },
    {
      "inputs": [
        {
          "internalType": "bytes4",
          "name": "interfaceId",
          "type": "bytes4"
        }
      ],
      "name": "supportsInterface",
      "outputs": [
        {
          "internalType": "bool",
          "name": "",
          "type": "bool"
        }
      ],
      "stateMutability": "view",
      "type": "function"
    },
    {
      "inputs": [],
      "name": "unpause",
      "outputs": [],
      "stateMutability": "nonpayable",
      "type": "function"
    },
    {
      "inputs": [
        {
          "internalType": "uint256",
          "name": "",
          "type": "uint256"
        }
      ],
      "name": "uri",
      "outputs": [
        {
          "internalType": "string",
          "name": "",
          "type": "string"
        }
      ],
      "stateMutability": "view",
      "type": "function"
    },
    {
      "inputs": [
        {
          "internalType": "address",
          "name": "_EscaperoomAdmin",
          "type": "address"
        },
        {
          "internalType": "string",
          "name": "_Name",
          "type": "string"
        },
        {
          "internalType": "uint256",
          "name": "_TotalCollactables",
          "type": "uint256"
        }
      ],
      "name": "createEscaperoom",
      "outputs": [],
      "stateMutability": "nonpayable",
      "type": "function"
    }
  ],
  "bytecode": "0x60806040523480156200001157600080fd5b5060405180606001604052806038815260200162003a3f6038913980620000617f01ffc9a700000000000000000000000000000000000000000000000000000000640100000000620001ab810204565b62000075816401000000006200027d810204565b620000a97fd9b67a2600000000000000000000000000000000000000000000000000000000640100000000620001ab810204565b620000dd7f0e89341c00000000000000000000000000000000000000000000000000000000640100000000620001ab810204565b506005805460ff191690556200011060006200010164010000000062000296810204565b6401000000006200029b810204565b604080517f4d494e5445525f524f4c450000000000000000000000000000000000000000008152905190819003600b0190206200015a906200010164010000000062000296810204565b604080517f5041555345525f524f4c450000000000000000000000000000000000000000008152905190819003600b019020620001a4906200010164010000000062000296810204565b5062000470565b7fffffffff0000000000000000000000000000000000000000000000000000000080821614156200023d57604080517f08c379a000000000000000000000000000000000000000000000000000000000815260206004820152601c60248201527f4552433136353a20696e76616c696420696e7465726661636520696400000000604482015290519081900360640190fd5b7fffffffff00000000000000000000000000000000000000000000000000000000166000908152600160208190526040909120805460ff19169091179055565b805162000292906004906020840190620003ce565b5050565b335b90565b620002928282640100000000620002b0810204565b6000828152602081905260409020620002d8908264010000000062002eae6200033582021704565b156200029257620002f164010000000062000296810204565b600160a060020a031681600160a060020a0316837f2f8788117e7eff1d82e926ec794901d17c78024a50270940304540a733656f0d60405160405180910390a45050565b60006200035583600160a060020a0384166401000000006200035e810204565b90505b92915050565b6000620003758383640100000000620003b6810204565b620003ad5750815460018181018455600084815260208082209093018490558454848252828601909352604090209190915562000358565b50600062000358565b60009081526001919091016020526040902054151590565b828054600181600116156101000203166002900490600052602060002090601f016020900481019282601f106200041157805160ff191683800117855562000441565b8280016001018555821562000441579182015b828111156200044157825182559160200191906001019062000424565b506200044f92915062000453565b5090565b6200029891905b808211156200044f57600081556001016200045a565b6135bf80620004806000396000f3fe608060405234801561001057600080fd5b50600436106101d25760003560e060020a90048063731133e911610108578063a8a3b13d116100a6578063e63ab1e911610075578063e63ab1e914610d01578063e985e9c514610d09578063f242432a14610d37578063f5298aca14610e02576101d2565b8063a8a3b13d14610bed578063ca15c87314610cb0578063d539139314610ccd578063d547741f14610cd5576101d2565b80639010d07c116100e25780639010d07c14610b4c57806391d1485414610b8b578063a217fddf14610bb7578063a22cb46514610bbf576101d2565b8063731133e914610a5c5780638456cb5914610b1e57806385aa4cde14610b26576101d2565b806336568abe116101755780634e1273f41161014f5780634e1273f4146106ee5780635c975abb146108655780635e9e8ffa1461086d5780636b20c45414610925576101d2565b806336568abe146106b25780633f4ba83a146106de5780634049ffca146106e6576101d2565b80631f7fdffa116101b15780631f7fdffa146102e2578063248a9ca3146104a25780632eb2c2d6146104bf5780632f2ff15d14610686576101d2565b8062fdd58e146101d757806301ffc9a7146102155780630e89341c14610250575b600080fd5b610203600480360360408110156101ed57600080fd5b50600160a060020a038135169060200135610e34565b60408051918252519081900360200190f35b61023c6004803603602081101561022b57600080fd5b5035600160e060020a031916610ea9565b604080519115158252519081900360200190f35b61026d6004803603602081101561026657600080fd5b5035610ec8565b6040805160208082528351818301528351919283929083019185019080838360005b838110156102a757818101518382015260200161028f565b50505050905090810190601f1680156102d45780820380516001836020036101000a031916815260200191505b509250505060405180910390f35b6104a0600480360360808110156102f857600080fd5b600160a060020a03823516919081019060408101602082013564010000000081111561032357600080fd5b82018360208201111561033557600080fd5b8035906020019184602083028401116401000000008311171561035757600080fd5b91908080602002602001604051908101604052809392919081815260200183836020028082843760009201919091525092959493602081019350359150506401000000008111156103a757600080fd5b8201836020820111156103b957600080fd5b803590602001918460208302840111640100000000831117156103db57600080fd5b919080806020026020016040519081016040528093929190818152602001838360200280828437600092019190915250929594936020810193503591505064010000000081111561042b57600080fd5b82018360208201111561043d57600080fd5b8035906020019184600183028401116401000000008311171561045f57600080fd5b91908080601f016020809104026020016040519081016040528093929190818152602001838380828437600092019190915250929550610f60945050505050565b005b610203600480360360208110156104b857600080fd5b5035610ff3565b6104a0600480360360a08110156104d557600080fd5b600160a060020a03823581169260208101359091169181019060608101604082013564010000000081111561050957600080fd5b82018360208201111561051b57600080fd5b8035906020019184602083028401116401000000008311171561053d57600080fd5b919080806020026020016040519081016040528093929190818152602001838360200280828437600092019190915250929594936020810193503591505064010000000081111561058d57600080fd5b82018360208201111561059f57600080fd5b803590602001918460208302840111640100000000831117156105c157600080fd5b919080806020026020016040519081016040528093929190818152602001838360200280828437600092019190915250929594936020810193503591505064010000000081111561061157600080fd5b82018360208201111561062357600080fd5b8035906020019184600183028401116401000000008311171561064557600080fd5b91908080601f016020809104026020016040519081016040528093929190818152602001838380828437600092019190915250929550611008945050505050565b6104a06004803603604081101561069c57600080fd5b5080359060200135600160a060020a0316611314565b6104a0600480360360408110156106c857600080fd5b5080359060200135600160a060020a031661137e565b6104a06113e2565b610203611468565b6108156004803603604081101561070457600080fd5b81019060208101813564010000000081111561071f57600080fd5b82018360208201111561073157600080fd5b8035906020019184602083028401116401000000008311171561075357600080fd5b91908080602002602001604051908101604052809392919081815260200183836020028082843760009201919091525092959493602081019350359150506401000000008111156107a357600080fd5b8201836020820111156107b557600080fd5b803590602001918460208302840111640100000000831117156107d757600080fd5b91908080602002602001604051908101604052809392919081815260200183836020028082843760009201919091525092955061146e945050505050565b60408051602080825283518183015283519192839290830191858101910280838360005b83811015610851578181015183820152602001610839565b505050509050019250505060405180910390f35b61023c6115db565b6104a06004803603606081101561088357600080fd5b600160a060020a0382351691908101906040810160208201356401000000008111156108ae57600080fd5b8201836020820111156108c057600080fd5b803590602001918460018302840111640100000000831117156108e257600080fd5b91908080601f01602080910402602001604051908101604052809392919081815260200183838082843760009201919091525092955050913592506115e5915050565b6104a06004803603606081101561093b57600080fd5b600160a060020a03823516919081019060408101602082013564010000000081111561096657600080fd5b82018360208201111561097857600080fd5b8035906020019184602083028401116401000000008311171561099a57600080fd5b91908080602002602001604051908101604052809392919081815260200183836020028082843760009201919091525092959493602081019350359150506401000000008111156109ea57600080fd5b8201836020820111156109fc57600080fd5b80359060200191846020830284011164010000000083111715610a1e57600080fd5b9190808060200260200160405190810160405280939291908181526020018383602002808284376000920191909152509295506117a2945050505050565b6104a060048036036080811015610a7257600080fd5b600160a060020a038235169160208101359160408201359190810190608081016060820135640100000000811115610aa957600080fd5b820183602082011115610abb57600080fd5b80359060200191846001830284011164010000000083111715610add57600080fd5b91908080601f01602080910402602001604051908101604052809392919081815260200183838082843760009201919091525092955061181e945050505050565b6104a06118a6565b61020360048036036020811015610b3c57600080fd5b5035600160a060020a031661192a565b610b6f60048036036040811015610b6257600080fd5b508035906020013561193c565b60408051600160a060020a039092168252519081900360200190f35b61023c60048036036040811015610ba157600080fd5b5080359060200135600160a060020a0316611961565b61020361197f565b6104a060048036036040811015610bd557600080fd5b50600160a060020a0381351690602001351515611984565b610c0a60048036036020811015610c0357600080fd5b5035611a76565b604051808681526020018060200185600160a060020a0316600160a060020a03168152602001848152602001838152602001828103825286818151815260200191508051906020019080838360005b83811015610c71578181015183820152602001610c59565b50505050905090810190601f168015610c9e5780820380516001836020036101000a031916815260200191505b50965050505050505060405180910390f35b61020360048036036020811015610cc657600080fd5b5035611b3b565b610203611b52565b6104a060048036036040811015610ceb57600080fd5b5080359060200135600160a060020a0316611b87565b610203611be3565b61023c60048036036040811015610d1f57600080fd5b50600160a060020a0381358116916020013516611c18565b6104a0600480360360a0811015610d4d57600080fd5b600160a060020a03823581169260208101359091169160408201359160608101359181019060a081016080820135640100000000811115610d8d57600080fd5b820183602082011115610d9f57600080fd5b80359060200191846001830284011164010000000083111715610dc157600080fd5b91908080601f016020809104026020016040519081016040528093929190818152602001838380828437600092019190915250929550611c46945050505050565b6104a060048036036060811015610e1857600080fd5b50600160a060020a038135169060208101359060400135611e1d565b6000600160a060020a038316610e7e5760405160e560020a62461bcd02815260040180806020018281038252602b8152602001806131e9602b913960400191505060405180910390fd5b506000818152600260209081526040808320600160a060020a03861684529091529020545b92915050565b600160e060020a03191660009081526001602052604090205460ff1690565b60048054604080516020601f6002600019610100600188161502019095169490940493840181900481028201810190925282815260609390929091830182828015610f545780601f10610f2957610100808354040283529160200191610f54565b820191906000526020600020905b815481529060010190602001808311610f3757829003601f168201915b50505050509050919050565b604080517f4d494e5445525f524f4c450000000000000000000000000000000000000000008152905190819003600b019020610fa390610f9e611e94565b611961565b610fe15760405160e560020a62461bcd02815260040180806020018281038252603881526020018061338a6038913960400191505060405180910390fd5b610fed84848484611e98565b50505050565b60009081526020819052604090206002015490565b815183511461104b5760405160e560020a62461bcd0281526004018080602001828103825260288152602001806135126028913960400191505060405180910390fd5b600160a060020a0384166110935760405160e560020a62461bcd0281526004018080602001828103825260258152602001806133106025913960400191505060405180910390fd5b61109b611e94565b600160a060020a031685600160a060020a031614806110c657506110c6856110c1611e94565b611c18565b6111045760405160e560020a62461bcd0281526004018080602001828103825260328152602001806133356032913960400191505060405180910390fd5b600061110e611e94565b905061111e8187878787876120f3565b60005b845181101561122457600085828151811061113857fe5b60200260200101519050600085838151811061115057fe5b602002602001015190506111bd816040518060600160405280602a81526020016133c2602a91396002600086815260200190815260200160002060008d600160a060020a0316600160a060020a03168152602001908152602001600020546121019092919063ffffffff16565b6000838152600260209081526040808320600160a060020a038e811685529252808320939093558a16815220546111f4908261219b565b6000928352600260209081526040808520600160a060020a038c1686529091529092209190915550600101611121565b5084600160a060020a031686600160a060020a031682600160a060020a03167f4a39dc06d4c0dbc64b70af90fd698a233a518aa5d07e595d983b8c0526c8f7fb8787604051808060200180602001838103835285818151815260200191508051906020019060200280838360005b838110156112aa578181015183820152602001611292565b50505050905001838103825284818151815260200191508051906020019060200280838360005b838110156112e95781810151838201526020016112d1565b5050505090500194505050505060405180910390a461130c8187878787876121f8565b505050505050565b60008281526020819052604090206002015461133290610f9e611e94565b6113705760405160e560020a62461bcd02815260040180806020018281038252602f8152602001806131ba602f913960400191505060405180910390fd5b61137a828261255e565b5050565b611386611e94565b600160a060020a031681600160a060020a0316146113d85760405160e560020a62461bcd02815260040180806020018281038252602f81526020018061355b602f913960400191505060405180910390fd5b61137a82826125cd565b604080517f5041555345525f524f4c450000000000000000000000000000000000000000008152905190819003600b01902061142090610f9e611e94565b61145e5760405160e560020a62461bcd02815260040180806020018281038252603b815260200180613410603b913960400191505060405180910390fd5b61146661263c565b565b60065481565b606081518351146114b35760405160e560020a62461bcd0281526004018080602001828103825260298152602001806134e96029913960400191505060405180910390fd5b606083516040519080825280602002602001820160405280156114e0578160200160208202803883390190505b50905060005b84518110156115d3576000600160a060020a031685828151811061150657fe5b6020026020010151600160a060020a031614156115575760405160e560020a62461bcd0281526004018080602001828103825260318152602001806132146031913960400191505060405180910390fd5b6002600085838151811061156757fe5b60200260200101518152602001908152602001600020600086838151811061158b57fe5b6020026020010151600160a060020a0316600160a060020a03168152602001908152602001600020548282815181106115c057fe5b60209081029190910101526001016114e6565b509392505050565b60055460ff165b90565b6115f0600033611961565b15156001146116335760405160e560020a62461bcd02815260040180806020018281038252603c81526020018061344b603c913960400191505060405180910390fd5b600081116116755760405160e560020a62461bcd0281526004018080602001828103825260248152602001806133ec6024913960400191505060405180910390fd5b600160a060020a0383166116bd5760405160e560020a62461bcd0281526004018080602001828103825260228152602001806132be6022913960400191505060405180910390fd5b600654600160a060020a0384166000908152600860205260409020556116e161306b565b6006548082526020808301858152600160a060020a0387166040808601919091526060850186905260009384526007835290922083518155915180518493926117319260018501929101906130a3565b5060408281015160028301805473ffffffffffffffffffffffffffffffffffffffff1916600160a060020a0390921691909117905560608301516003830155608090920151600490910155600680546001019081905581516020810190925260008252610fed9186919085906126e6565b6117aa611e94565b600160a060020a031683600160a060020a031614806117d057506117d0836110c1611e94565b61180e5760405160e560020a62461bcd0281526004018080602001828103825260298152602001806132956029913960400191505060405180910390fd5b6118198383836127f0565b505050565b604080517f4d494e5445525f524f4c450000000000000000000000000000000000000000008152905190819003600b01902061185c90610f9e611e94565b61189a5760405160e560020a62461bcd02815260040180806020018281038252603881526020018061338a6038913960400191505060405180910390fd5b610fed848484846126e6565b604080517f5041555345525f524f4c450000000000000000000000000000000000000000008152905190819003600b0190206118e490610f9e611e94565b6119225760405160e560020a62461bcd0281526004018080602001828103825260398152602001806134876039913960400191505060405180910390fd5b611466612a64565b60086020526000908152604090205481565b600082815260208190526040812061195a908363ffffffff612af516565b9392505050565b600082815260208190526040812061195a908363ffffffff612b0116565b600081565b81600160a060020a0316611996611e94565b600160a060020a031614156119df5760405160e560020a62461bcd0281526004018080602001828103825260298152602001806134c06029913960400191505060405180910390fd5b80600360006119ec611e94565b600160a060020a03908116825260208083019390935260409182016000908120918716808252919093529120805460ff191692151592909217909155611a30611e94565b6040805184151581529051600160a060020a0392909216917f17307eab39ab6107e8899845ad3d59bd9653f200f220920489ca2b5937696c319181900360200190a35050565b6007602090815260009182526040918290208054600180830180548651600293821615610100026000190190911692909204601f810186900486028301860190965285825291949293909290830182828015611b135780601f10611ae857610100808354040283529160200191611b13565b820191906000526020600020905b815481529060010190602001808311611af657829003601f168201915b50505050600283015460038401546004909401549293600160a060020a039091169290915085565b6000818152602081905260408120610ea390612b16565b604080517f4d494e5445525f524f4c450000000000000000000000000000000000000000008152905190819003600b01902081565b600082815260208190526040902060020154611ba590610f9e611e94565b6113d85760405160e560020a62461bcd0281526004018080602001828103825260308152602001806132e06030913960400191505060405180910390fd5b604080517f5041555345525f524f4c450000000000000000000000000000000000000000008152905190819003600b01902081565b600160a060020a03918216600090815260036020908152604080832093909416825291909152205460ff1690565b600160a060020a038416611c8e5760405160e560020a62461bcd0281526004018080602001828103825260258152602001806133106025913960400191505060405180910390fd5b611c96611e94565b600160a060020a031685600160a060020a03161480611cbc5750611cbc856110c1611e94565b611cfa5760405160e560020a62461bcd0281526004018080602001828103825260298152602001806132956029913960400191505060405180910390fd5b6000611d04611e94565b9050611d24818787611d1588612b21565b611d1e88612b21565b876120f3565b611d71836040518060600160405280602a81526020016133c2602a91396000878152600260209081526040808320600160a060020a038d168452909152902054919063ffffffff61210116565b6000858152600260209081526040808320600160a060020a038b81168552925280832093909355871681522054611da8908461219b565b6000858152600260209081526040808320600160a060020a03808b168086529184529382902094909455805188815291820187905280518a8416938616927fc3d58168c5ae7397731d063d5bbf3d657854427343f4c083240f7aacaa2d0f6292908290030190a461130c818787878787612b65565b611e25611e94565b600160a060020a031683600160a060020a03161480611e4b5750611e4b836110c1611e94565b611e895760405160e560020a62461bcd0281526004018080602001828103825260298152602001806132956029913960400191505060405180910390fd5b611819838383612d17565b3390565b600160a060020a038416611ee05760405160e560020a62461bcd02815260040180806020018281038252602181526020018061353a6021913960400191505060405180910390fd5b8151835114611f235760405160e560020a62461bcd0281526004018080602001828103825260288152602001806135126028913960400191505060405180910390fd5b6000611f2d611e94565b9050611f3e816000878787876120f3565b60005b845181101561200257611fb960026000878481518110611f5d57fe5b60200260200101518152602001908152602001600020600088600160a060020a0316600160a060020a0316815260200190815260200160002054858381518110611fa357fe5b602002602001015161219b90919063ffffffff16565b60026000878481518110611fc957fe5b60209081029190910181015182528181019290925260409081016000908120600160a060020a038b168252909252902055600101611f41565b5084600160a060020a03166000600160a060020a031682600160a060020a03167f4a39dc06d4c0dbc64b70af90fd698a233a518aa5d07e595d983b8c0526c8f7fb8787604051808060200180602001838103835285818151815260200191508051906020019060200280838360005b83811015612089578181015183820152602001612071565b50505050905001838103825284818151815260200191508051906020019060200280838360005b838110156120c85781810151838201526020016120b0565b5050505090500194505050505060405180910390a46120ec816000878787876121f8565b5050505050565b61130c868686868686612e53565b600081848411156121935760405160e560020a62461bcd0281526004018080602001828103825283818151815260200191508051906020019080838360005b83811015612158578181015183820152602001612140565b50505050905090810190601f1680156121855780820380516001836020036101000a031916815260200191505b509250505060405180910390fd5b505050900390565b60008282018381101561195a576040805160e560020a62461bcd02815260206004820152601b60248201527f536166654d6174683a206164646974696f6e206f766572666c6f770000000000604482015290519081900360640190fd5b61220a84600160a060020a0316612ea8565b1561130c5783600160a060020a031663bc197c8187878686866040518663ffffffff1660e060020a0281526004018086600160a060020a0316600160a060020a0316815260200185600160a060020a0316600160a060020a03168152602001806020018060200180602001848103845287818151815260200191508051906020019060200280838360005b838110156122ad578181015183820152602001612295565b50505050905001848103835286818151815260200191508051906020019060200280838360005b838110156122ec5781810151838201526020016122d4565b50505050905001848103825285818151815260200191508051906020019080838360005b83811015612328578181015183820152602001612310565b50505050905090810190601f1680156123555780820380516001836020036101000a031916815260200191505b5098505050505050505050602060405180830381600087803b15801561237a57600080fd5b505af192505050801561239f57506040513d602081101561239a57600080fd5b505160015b6124ea576040516000815260443d10156123bb5750600061245b565b60046000803e60e060020a600051046308c379a081146123df57600091505061245b565b60043d036004833e81513d602482011167ffffffffffffffff8211171561240b5760009250505061245b565b808301805167ffffffffffffffff81111561242d57600094505050505061245b565b8060208301013d860181111561244b5760009550505050505061245b565b601f01601f191660405250925050505b8061246657506124b0565b60405160e560020a62461bcd028152602060048201818152835160248401528351849391928392604401919085019080838360008315612158578181015183820152602001612140565b60405160e560020a62461bcd02815260040180806020018281038252603481526020018061313c6034913960400191505060405180910390fd5b600160e060020a031981167fbc197c8100000000000000000000000000000000000000000000000000000000146125555760405160e560020a62461bcd0281526004018080602001828103825260288152602001806131926028913960400191505060405180910390fd5b50505050505050565b600082815260208190526040902061257c908263ffffffff612eae16565b1561137a57612589611e94565b600160a060020a031681600160a060020a0316837f2f8788117e7eff1d82e926ec794901d17c78024a50270940304540a733656f0d60405160405180910390a45050565b60008281526020819052604090206125eb908263ffffffff612ec316565b1561137a576125f8611e94565b600160a060020a031681600160a060020a0316837ff6391f5c32d9c69d2a47ea670b442974b53935d1edc7fd64eb21e047a839171b60405160405180910390a45050565b60055460ff16612696576040805160e560020a62461bcd02815260206004820152601460248201527f5061757361626c653a206e6f7420706175736564000000000000000000000000604482015290519081900360640190fd5b6005805460ff191690557f5db9ee0a495bf2e6ff9c91a7834c1ba4fdd244a5e8aa4e537bd38aeae4b073aa6126c9611e94565b60408051600160a060020a039092168252519081900360200190a1565b600160a060020a03841661272e5760405160e560020a62461bcd02815260040180806020018281038252602181526020018061353a6021913960400191505060405180910390fd5b6000612738611e94565b905061274a81600087611d1588612b21565b6000848152600260209081526040808320600160a060020a038916845290915290205461277d908463ffffffff61219b16565b6000858152600260209081526040808320600160a060020a03808b16808652918452828520959095558151898152928301889052815190948616927fc3d58168c5ae7397731d063d5bbf3d657854427343f4c083240f7aacaa2d0f6292908290030190a46120ec81600087878787612b65565b600160a060020a0383166128385760405160e560020a62461bcd0281526004018080602001828103825260238152602001806133676023913960400191505060405180910390fd5b805182511461287b5760405160e560020a62461bcd0281526004018080602001828103825260288152602001806135126028913960400191505060405180910390fd5b6000612885611e94565b90506128a5818560008686604051806020016040528060008152506120f3565b60005b83518110156129835761293a8382815181106128c057fe5b602002602001015160405180606001604052806024815260200161324560249139600260008886815181106128f157fe5b60200260200101518152602001908152602001600020600089600160a060020a0316600160a060020a03168152602001908152602001600020546121019092919063ffffffff16565b6002600086848151811061294a57fe5b60209081029190910181015182528181019290925260409081016000908120600160a060020a038a1682529092529020556001016128a8565b506000600160a060020a031684600160a060020a031682600160a060020a03167f4a39dc06d4c0dbc64b70af90fd698a233a518aa5d07e595d983b8c0526c8f7fb8686604051808060200180602001838103835285818151815260200191508051906020019060200280838360005b83811015612a0a5781810151838201526020016129f2565b50505050905001838103825284818151815260200191508051906020019060200280838360005b83811015612a49578181015183820152602001612a31565b5050505090500194505050505060405180910390a450505050565b60055460ff1615612abf576040805160e560020a62461bcd02815260206004820152601060248201527f5061757361626c653a2070617573656400000000000000000000000000000000604482015290519081900360640190fd5b6005805460ff191660011790557f62e78cea01bee320cd4e420270b5ea74000d11b0c9f74754ebdbfc544b05a2586126c9611e94565b600061195a8383612ed8565b600061195a83600160a060020a038416612f3f565b6000610ea382612f57565b604080516001808252818301909252606091829190602080830190803883390190505090508281600081518110612b5457fe5b602090810291909101015292915050565b612b7784600160a060020a0316612ea8565b1561130c5783600160a060020a031663f23a6e6187878686866040518663ffffffff1660e060020a0281526004018086600160a060020a0316600160a060020a0316815260200185600160a060020a0316600160a060020a0316815260200184815260200183815260200180602001828103825283818151815260200191508051906020019080838360005b83811015612c1b578181015183820152602001612c03565b50505050905090810190601f168015612c485780820380516001836020036101000a031916815260200191505b509650505050505050602060405180830381600087803b158015612c6b57600080fd5b505af1925050508015612c9057506040513d6020811015612c8b57600080fd5b505160015b612cac576040516000815260443d10156123bb5750600061245b565b600160e060020a031981167ff23a6e6100000000000000000000000000000000000000000000000000000000146125555760405160e560020a62461bcd0281526004018080602001828103825260288152602001806131926028913960400191505060405180910390fd5b600160a060020a038316612d5f5760405160e560020a62461bcd0281526004018080602001828103825260238152602001806133676023913960400191505060405180910390fd5b6000612d69611e94565b9050612d9981856000612d7b87612b21565b612d8487612b21565b604051806020016040528060008152506120f3565b612de682604051806060016040528060248152602001613245602491396000868152600260209081526040808320600160a060020a038b168452909152902054919063ffffffff61210116565b6000848152600260209081526040808320600160a060020a03808a16808652918452828520959095558151888152928301879052815193949093908616927fc3d58168c5ae7397731d063d5bbf3d657854427343f4c083240f7aacaa2d0f6292908290030190a450505050565b612e6186868686868661130c565b612e696115db565b1561130c5760405160e560020a62461bcd02815260040180806020018281038252602c815260200180613269602c913960400191505060405180910390fd5b3b151590565b600061195a83600160a060020a038416612f5b565b600061195a83600160a060020a038416612fa5565b81546000908210612f1d5760405160e560020a62461bcd0281526004018080602001828103825260228152602001806131706022913960400191505060405180910390fd5b826000018281548110612f2c57fe5b9060005260206000200154905092915050565b60009081526001919091016020526040902054151590565b5490565b6000612f678383612f3f565b612f9d57508154600181810184556000848152602080822090930184905584548482528286019093526040902091909155610ea3565b506000610ea3565b600081815260018301602052604081205480156130615783546000198083019190810190600090879083908110612fd857fe5b9060005260206000200154905080876000018481548110612ff557fe5b60009182526020808320909101929092558281526001898101909252604090209084019055865487908061302557fe5b60019003818190600052602060002001600090559055866001016000878152602001908152602001600020600090556001945050505050610ea3565b6000915050610ea3565b6040518060a0016040528060008152602001606081526020016000600160a060020a0316815260200160008152602001600081525090565b828054600181600116156101000203166002900490600052602060002090601f016020900481019282601f106130e457805160ff1916838001178555613111565b82800160010185558215613111579182015b828111156131115782518255916020019190600101906130f6565b5061311d929150613121565b5090565b6115e291905b8082111561311d576000815560010161312756fe455243313135353a207472616e7366657220746f206e6f6e2045524331313535526563656976657220696d706c656d656e746572456e756d657261626c655365743a20696e646578206f7574206f6620626f756e6473455243313135353a204552433131353552656365697665722072656a656374656420746f6b656e73416363657373436f6e74726f6c3a2073656e646572206d75737420626520616e2061646d696e20746f206772616e74455243313135353a2062616c616e636520717565727920666f7220746865207a65726f2061646472657373455243313135353a2062617463682062616c616e636520717565727920666f7220746865207a65726f2061646472657373455243313135353a206275726e20616d6f756e7420657863656564732062616c616e6365455243313135355061757361626c653a20746f6b656e207472616e73666572207768696c6520706175736564455243313135353a2063616c6c6572206973206e6f74206f776e6572206e6f7220617070726f7665644572726f723a205f457363617065726f6f6d41646d696e20697320696e76616c6964416363657373436f6e74726f6c3a2073656e646572206d75737420626520616e2061646d696e20746f207265766f6b65455243313135353a207472616e7366657220746f20746865207a65726f2061646472657373455243313135353a207472616e736665722063616c6c6572206973206e6f74206f776e6572206e6f7220617070726f766564455243313135353a206275726e2066726f6d20746865207a65726f2061646472657373455243313135355072657365744d696e7465725061757365723a206d7573742068617665206d696e74657220726f6c6520746f206d696e74455243313135353a20696e73756666696369656e742062616c616e636520666f72207472616e736665724572726f723a20546f74616c436f6c6c61637461626c6573206d757374206265203e2030455243313135355072657365744d696e7465725061757365723a206d75737420686176652070617573657220726f6c6520746f20756e70617573654572726f723a2043616c6c696e67206164647265737320646f6573206e6f7420686176652044454641554c545f41444d494e5f524f4c4520726f6c65455243313135355072657365744d696e7465725061757365723a206d75737420686176652070617573657220726f6c6520746f207061757365455243313135353a2073657474696e6720617070726f76616c2073746174757320666f722073656c66455243313135353a206163636f756e747320616e6420696473206c656e677468206d69736d61746368455243313135353a2069647320616e6420616d6f756e7473206c656e677468206d69736d61746368455243313135353a206d696e7420746f20746865207a65726f2061646472657373416363657373436f6e74726f6c3a2063616e206f6e6c792072656e6f756e636520726f6c657320666f722073656c66a26469706673582212206790657fc886b9eba818e483f6dcf72b0654de54914a250e2f2b11741a3f70f464736f6c6343000602003368747470733a2f2f657263313135356d657461646174612e617a75726577656273697465732e6e65742f6170692f746f6b656e2f7b69647d",
  "source": "// SPDX-License-Identifier: MIT\r\npragma solidity ^0.6.0;\r\n\r\nimport \"@openzeppelin/contracts/presets/ERC1155PresetMinterPauser.sol\";\r\n\r\ncontract Collactables is ERC1155PresetMinterPauser {\r\n\r\n    struct s_Escaperoom {\r\n        uint _Id;\r\n        string _Name;\r\n        address _Admin;\r\n        uint _TotalCollactables;\r\n        uint _TotalGivenAway;\r\n    }\r\n\r\n    //bytes32 public constant ESCAPEROOM_ADMIN_ROLE = keccak256(\"ESCAPEROOM_ADMIN_ROLE\");\r\n    uint public EscapeRoomCounter;\r\n    mapping(uint => s_Escaperoom) public Escaperooms;\r\n    mapping(address => uint) public EscaperoomAdmins;\r\n\r\n    constructor() public ERC1155PresetMinterPauser(\"https://erc1155metadata.azurewebsites.net/api/token/{id}\") {\r\n        // _mint(msg.sender, 2, 1, \"\");\r\n        // _mint(msg.sender, 0, 10**18, \"\");\r\n    }\r\n\r\n    function createEscaperoom(address _EscaperoomAdmin, string memory _Name, uint _TotalCollactables) public {\r\n        require(hasRole(DEFAULT_ADMIN_ROLE,msg.sender) == true, \"Error: Calling address does not have DEFAULT_ADMIN_ROLE role\");\r\n        require(_TotalCollactables > 0, \"Error: TotalCollactables must be > 0\");\r\n        require(_EscaperoomAdmin != address(0), \"Error: _EscaperoomAdmin is invalid\");\r\n\r\n        EscaperoomAdmins[_EscaperoomAdmin] = EscapeRoomCounter;\r\n\r\n        //grantRole(ESCAPEROOM_ADMIN_ROLE, _EscaperoomAdmin);\r\n\r\n        s_Escaperoom memory tmpEscaperoom;\r\n        tmpEscaperoom._Id = EscapeRoomCounter;\r\n        tmpEscaperoom._Name = _Name;\r\n        tmpEscaperoom._Admin = _EscaperoomAdmin;\r\n        tmpEscaperoom._TotalCollactables = _TotalCollactables;\r\n\r\n        Escaperooms[EscapeRoomCounter] = tmpEscaperoom;\r\n        EscapeRoomCounter += 1;\r\n\r\n        _mint(_EscaperoomAdmin, EscapeRoomCounter, _TotalCollactables, \"\");\r\n    }\r\n\r\n}\r\n",
  "sourcePath": "C:/Users/arnou/OneDrive - Infent/Infent/Blockchain/Escaperoom/contracts/Collactables.sol",
  "compiler": {
    "name": "solc",
    "version": "0.6.2+commit.bacdbe57.Emscripten.clang"
  },
  "schemaVersion": "3.2.5",
  "updatedAt": "2020-10-18T13:24:11.605Z",
  "devdoc": {
    "methods": {
      "balanceOf(address,uint256)": {
        "details": "See {IERC1155-balanceOf}.     * Requirements:     * - `account` cannot be the zero address."
      },
      "balanceOfBatch(address[],uint256[])": {
        "details": "See {IERC1155-balanceOfBatch}.     * Requirements:     * - `accounts` and `ids` must have the same length."
      },
      "getRoleAdmin(bytes32)": {
        "details": "Returns the admin role that controls `role`. See {grantRole} and {revokeRole}.     * To change a role's admin, use {_setRoleAdmin}."
      },
      "getRoleMember(bytes32,uint256)": {
        "details": "Returns one of the accounts that have `role`. `index` must be a value between 0 and {getRoleMemberCount}, non-inclusive.     * Role bearers are not sorted in any particular way, and their ordering may change at any point.     * WARNING: When using {getRoleMember} and {getRoleMemberCount}, make sure you perform all queries on the same block. See the following https://forum.openzeppelin.com/t/iterating-over-elements-on-enumerableset-in-openzeppelin-contracts/2296[forum post] for more information."
      },
      "getRoleMemberCount(bytes32)": {
        "details": "Returns the number of accounts that have `role`. Can be used together with {getRoleMember} to enumerate all bearers of a role."
      },
      "grantRole(bytes32,address)": {
        "details": "Grants `role` to `account`.     * If `account` had not been already granted `role`, emits a {RoleGranted} event.     * Requirements:     * - the caller must have ``role``'s admin role."
      },
      "hasRole(bytes32,address)": {
        "details": "Returns `true` if `account` has been granted `role`."
      },
      "isApprovedForAll(address,address)": {
        "details": "See {IERC1155-isApprovedForAll}."
      },
      "mint(address,uint256,uint256,bytes)": {
        "details": "Creates `amount` new tokens for `to`, of token type `id`.     * See {ERC1155-_mint}.     * Requirements:     * - the caller must have the `MINTER_ROLE`."
      },
      "mintBatch(address,uint256[],uint256[],bytes)": {
        "details": "xref:ROOT:erc1155.adoc#batch-operations[Batched] variant of {mint}."
      },
      "pause()": {
        "details": "Pauses all token transfers.     * See {ERC1155Pausable} and {Pausable-_pause}.     * Requirements:     * - the caller must have the `PAUSER_ROLE`."
      },
      "paused()": {
        "details": "Returns true if the contract is paused, and false otherwise."
      },
      "renounceRole(bytes32,address)": {
        "details": "Revokes `role` from the calling account.     * Roles are often managed via {grantRole} and {revokeRole}: this function's purpose is to provide a mechanism for accounts to lose their privileges if they are compromised (such as when a trusted device is misplaced).     * If the calling account had been granted `role`, emits a {RoleRevoked} event.     * Requirements:     * - the caller must be `account`."
      },
      "revokeRole(bytes32,address)": {
        "details": "Revokes `role` from `account`.     * If `account` had been granted `role`, emits a {RoleRevoked} event.     * Requirements:     * - the caller must have ``role``'s admin role."
      },
      "safeBatchTransferFrom(address,address,uint256[],uint256[],bytes)": {
        "details": "See {IERC1155-safeBatchTransferFrom}."
      },
      "safeTransferFrom(address,address,uint256,uint256,bytes)": {
        "details": "See {IERC1155-safeTransferFrom}."
      },
      "setApprovalForAll(address,bool)": {
        "details": "See {IERC1155-setApprovalForAll}."
      },
      "supportsInterface(bytes4)": {
        "details": "See {IERC165-supportsInterface}.     * Time complexity O(1), guaranteed to always use less than 30 000 gas."
      },
      "unpause()": {
        "details": "Unpauses all token transfers.     * See {ERC1155Pausable} and {Pausable-_unpause}.     * Requirements:     * - the caller must have the `PAUSER_ROLE`."
      },
      "uri(uint256)": {
        "details": "See {IERC1155MetadataURI-uri}.     * This implementation returns the same URI for *all* token types. It relies on the token type ID substitution mechanism https://eips.ethereum.org/EIPS/eip-1155#metadata[defined in the EIP].     * Clients calling this function must replace the `\\{id\\}` substring with the actual token type ID."
      }
    }
  },
  "userdoc": {
    "methods": {}
  }
}