{
  "contractName": "Collectables",
  "abi": [
    {
      "inputs": [],
      "stateMutability": "nonpayable",
      "type": "constructor"
    },
    {
      "anonymous": false,
      "inputs": [
        {
          "indexed": true,
          "internalType": "address",
          "name": "account",
          "type": "address"
        },
        {
          "indexed": true,
          "internalType": "address",
          "name": "operator",
          "type": "address"
        },
        {
          "indexed": false,
          "internalType": "bool",
          "name": "approved",
          "type": "bool"
        }
      ],
      "name": "ApprovalForAll",
      "type": "event"
    },
    {
      "anonymous": false,
      "inputs": [
        {
          "indexed": false,
          "internalType": "address",
          "name": "account",
          "type": "address"
        }
      ],
      "name": "Paused",
      "type": "event"
    },
    {
      "anonymous": false,
      "inputs": [
        {
          "indexed": true,
          "internalType": "bytes32",
          "name": "role",
          "type": "bytes32"
        },
        {
          "indexed": true,
          "internalType": "bytes32",
          "name": "previousAdminRole",
          "type": "bytes32"
        },
        {
          "indexed": true,
          "internalType": "bytes32",
          "name": "newAdminRole",
          "type": "bytes32"
        }
      ],
      "name": "RoleAdminChanged",
      "type": "event"
    },
    {
      "anonymous": false,
      "inputs": [
        {
          "indexed": true,
          "internalType": "bytes32",
          "name": "role",
          "type": "bytes32"
        },
        {
          "indexed": true,
          "internalType": "address",
          "name": "account",
          "type": "address"
        },
        {
          "indexed": true,
          "internalType": "address",
          "name": "sender",
          "type": "address"
        }
      ],
      "name": "RoleGranted",
      "type": "event"
    },
    {
      "anonymous": false,
      "inputs": [
        {
          "indexed": true,
          "internalType": "bytes32",
          "name": "role",
          "type": "bytes32"
        },
        {
          "indexed": true,
          "internalType": "address",
          "name": "account",
          "type": "address"
        },
        {
          "indexed": true,
          "internalType": "address",
          "name": "sender",
          "type": "address"
        }
      ],
      "name": "RoleRevoked",
      "type": "event"
    },
    {
      "anonymous": false,
      "inputs": [
        {
          "indexed": true,
          "internalType": "address",
          "name": "operator",
          "type": "address"
        },
        {
          "indexed": true,
          "internalType": "address",
          "name": "from",
          "type": "address"
        },
        {
          "indexed": true,
          "internalType": "address",
          "name": "to",
          "type": "address"
        },
        {
          "indexed": false,
          "internalType": "uint256[]",
          "name": "ids",
          "type": "uint256[]"
        },
        {
          "indexed": false,
          "internalType": "uint256[]",
          "name": "values",
          "type": "uint256[]"
        }
      ],
      "name": "TransferBatch",
      "type": "event"
    },
    {
      "anonymous": false,
      "inputs": [
        {
          "indexed": true,
          "internalType": "address",
          "name": "operator",
          "type": "address"
        },
        {
          "indexed": true,
          "internalType": "address",
          "name": "from",
          "type": "address"
        },
        {
          "indexed": true,
          "internalType": "address",
          "name": "to",
          "type": "address"
        },
        {
          "indexed": false,
          "internalType": "uint256",
          "name": "id",
          "type": "uint256"
        },
        {
          "indexed": false,
          "internalType": "uint256",
          "name": "value",
          "type": "uint256"
        }
      ],
      "name": "TransferSingle",
      "type": "event"
    },
    {
      "anonymous": false,
      "inputs": [
        {
          "indexed": false,
          "internalType": "string",
          "name": "value",
          "type": "string"
        },
        {
          "indexed": true,
          "internalType": "uint256",
          "name": "id",
          "type": "uint256"
        }
      ],
      "name": "URI",
      "type": "event"
    },
    {
      "anonymous": false,
      "inputs": [
        {
          "indexed": false,
          "internalType": "address",
          "name": "account",
          "type": "address"
        }
      ],
      "name": "Unpaused",
      "type": "event"
    },
    {
      "anonymous": false,
      "inputs": [
        {
          "indexed": true,
          "internalType": "address",
          "name": "_admin",
          "type": "address"
        },
        {
          "indexed": false,
          "internalType": "uint256",
          "name": "_pricePerCollectable",
          "type": "uint256"
        }
      ],
      "name": "pricePerCollectableUpdated",
      "type": "event"
    },
    {
      "anonymous": false,
      "inputs": [
        {
          "indexed": true,
          "internalType": "address",
          "name": "_visitor",
          "type": "address"
        },
        {
          "indexed": true,
          "internalType": "uint256",
          "name": "_id",
          "type": "uint256"
        }
      ],
      "name": "visitorRewarded",
      "type": "event"
    },
    {
      "inputs": [],
      "name": "DEFAULT_ADMIN_ROLE",
      "outputs": [
        {
          "internalType": "bytes32",
          "name": "",
          "type": "bytes32"
        }
      ],
      "stateMutability": "view",
      "type": "function",
      "constant": true
    },
    {
      "inputs": [],
      "name": "EscapeRoomCounter",
      "outputs": [
        {
          "internalType": "uint256",
          "name": "",
          "type": "uint256"
        }
      ],
      "stateMutability": "view",
      "type": "function",
      "constant": true
    },
    {
      "inputs": [
        {
          "internalType": "address",
          "name": "",
          "type": "address"
        }
      ],
      "name": "EscaperoomAdmins",
      "outputs": [
        {
          "internalType": "uint256",
          "name": "",
          "type": "uint256"
        }
      ],
      "stateMutability": "view",
      "type": "function",
      "constant": true
    },
    {
      "inputs": [
        {
          "internalType": "uint256",
          "name": "",
          "type": "uint256"
        }
      ],
      "name": "Escaperooms",
      "outputs": [
        {
          "internalType": "uint256",
          "name": "_Id",
          "type": "uint256"
        },
        {
          "internalType": "string",
          "name": "_Name",
          "type": "string"
        },
        {
          "internalType": "address",
          "name": "_Admin",
          "type": "address"
        },
        {
          "internalType": "uint256",
          "name": "_TotalCollectables",
          "type": "uint256"
        },
        {
          "internalType": "bool",
          "name": "_enabled",
          "type": "bool"
        }
      ],
      "stateMutability": "view",
      "type": "function",
      "constant": true
    },
    {
      "inputs": [],
      "name": "MINTER_ROLE",
      "outputs": [
        {
          "internalType": "bytes32",
          "name": "",
          "type": "bytes32"
        }
      ],
      "stateMutability": "view",
      "type": "function",
      "constant": true
    },
    {
      "inputs": [],
      "name": "PAUSER_ROLE",
      "outputs": [
        {
          "internalType": "bytes32",
          "name": "",
          "type": "bytes32"
        }
      ],
      "stateMutability": "view",
      "type": "function",
      "constant": true
    },
    {
      "inputs": [],
      "name": "PricePerCollectable",
      "outputs": [
        {
          "internalType": "uint256",
          "name": "",
          "type": "uint256"
        }
      ],
      "stateMutability": "view",
      "type": "function",
      "constant": true
    },
    {
      "inputs": [
        {
          "internalType": "address",
          "name": "account",
          "type": "address"
        },
        {
          "internalType": "uint256",
          "name": "id",
          "type": "uint256"
        }
      ],
      "name": "balanceOf",
      "outputs": [
        {
          "internalType": "uint256",
          "name": "",
          "type": "uint256"
        }
      ],
      "stateMutability": "view",
      "type": "function",
      "constant": true
    },
    {
      "inputs": [
        {
          "internalType": "address[]",
          "name": "accounts",
          "type": "address[]"
        },
        {
          "internalType": "uint256[]",
          "name": "ids",
          "type": "uint256[]"
        }
      ],
      "name": "balanceOfBatch",
      "outputs": [
        {
          "internalType": "uint256[]",
          "name": "",
          "type": "uint256[]"
        }
      ],
      "stateMutability": "view",
      "type": "function",
      "constant": true
    },
    {
      "inputs": [
        {
          "internalType": "address",
          "name": "account",
          "type": "address"
        },
        {
          "internalType": "uint256",
          "name": "id",
          "type": "uint256"
        },
        {
          "internalType": "uint256",
          "name": "value",
          "type": "uint256"
        }
      ],
      "name": "burn",
      "outputs": [],
      "stateMutability": "nonpayable",
      "type": "function"
    },
    {
      "inputs": [
        {
          "internalType": "address",
          "name": "account",
          "type": "address"
        },
        {
          "internalType": "uint256[]",
          "name": "ids",
          "type": "uint256[]"
        },
        {
          "internalType": "uint256[]",
          "name": "values",
          "type": "uint256[]"
        }
      ],
      "name": "burnBatch",
      "outputs": [],
      "stateMutability": "nonpayable",
      "type": "function"
    },
    {
      "inputs": [
        {
          "internalType": "bytes32",
          "name": "role",
          "type": "bytes32"
        }
      ],
      "name": "getRoleAdmin",
      "outputs": [
        {
          "internalType": "bytes32",
          "name": "",
          "type": "bytes32"
        }
      ],
      "stateMutability": "view",
      "type": "function",
      "constant": true
    },
    {
      "inputs": [
        {
          "internalType": "bytes32",
          "name": "role",
          "type": "bytes32"
        },
        {
          "internalType": "uint256",
          "name": "index",
          "type": "uint256"
        }
      ],
      "name": "getRoleMember",
      "outputs": [
        {
          "internalType": "address",
          "name": "",
          "type": "address"
        }
      ],
      "stateMutability": "view",
      "type": "function",
      "constant": true
    },
    {
      "inputs": [
        {
          "internalType": "bytes32",
          "name": "role",
          "type": "bytes32"
        }
      ],
      "name": "getRoleMemberCount",
      "outputs": [
        {
          "internalType": "uint256",
          "name": "",
          "type": "uint256"
        }
      ],
      "stateMutability": "view",
      "type": "function",
      "constant": true
    },
    {
      "inputs": [
        {
          "internalType": "bytes32",
          "name": "role",
          "type": "bytes32"
        },
        {
          "internalType": "address",
          "name": "account",
          "type": "address"
        }
      ],
      "name": "grantRole",
      "outputs": [],
      "stateMutability": "nonpayable",
      "type": "function"
    },
    {
      "inputs": [
        {
          "internalType": "bytes32",
          "name": "role",
          "type": "bytes32"
        },
        {
          "internalType": "address",
          "name": "account",
          "type": "address"
        }
      ],
      "name": "hasRole",
      "outputs": [
        {
          "internalType": "bool",
          "name": "",
          "type": "bool"
        }
      ],
      "stateMutability": "view",
      "type": "function",
      "constant": true
    },
    {
      "inputs": [
        {
          "internalType": "address",
          "name": "account",
          "type": "address"
        },
        {
          "internalType": "address",
          "name": "operator",
          "type": "address"
        }
      ],
      "name": "isApprovedForAll",
      "outputs": [
        {
          "internalType": "bool",
          "name": "",
          "type": "bool"
        }
      ],
      "stateMutability": "view",
      "type": "function",
      "constant": true
    },
    {
      "inputs": [
        {
          "internalType": "address",
          "name": "to",
          "type": "address"
        },
        {
          "internalType": "uint256",
          "name": "id",
          "type": "uint256"
        },
        {
          "internalType": "uint256",
          "name": "amount",
          "type": "uint256"
        },
        {
          "internalType": "bytes",
          "name": "data",
          "type": "bytes"
        }
      ],
      "name": "mint",
      "outputs": [],
      "stateMutability": "nonpayable",
      "type": "function"
    },
    {
      "inputs": [
        {
          "internalType": "address",
          "name": "to",
          "type": "address"
        },
        {
          "internalType": "uint256[]",
          "name": "ids",
          "type": "uint256[]"
        },
        {
          "internalType": "uint256[]",
          "name": "amounts",
          "type": "uint256[]"
        },
        {
          "internalType": "bytes",
          "name": "data",
          "type": "bytes"
        }
      ],
      "name": "mintBatch",
      "outputs": [],
      "stateMutability": "nonpayable",
      "type": "function"
    },
    {
      "inputs": [],
      "name": "pause",
      "outputs": [],
      "stateMutability": "nonpayable",
      "type": "function"
    },
    {
      "inputs": [],
      "name": "paused",
      "outputs": [
        {
          "internalType": "bool",
          "name": "",
          "type": "bool"
        }
      ],
      "stateMutability": "view",
      "type": "function",
      "constant": true
    },
    {
      "inputs": [
        {
          "internalType": "bytes32",
          "name": "role",
          "type": "bytes32"
        },
        {
          "internalType": "address",
          "name": "account",
          "type": "address"
        }
      ],
      "name": "renounceRole",
      "outputs": [],
      "stateMutability": "nonpayable",
      "type": "function"
    },
    {
      "inputs": [
        {
          "internalType": "bytes32",
          "name": "role",
          "type": "bytes32"
        },
        {
          "internalType": "address",
          "name": "account",
          "type": "address"
        }
      ],
      "name": "revokeRole",
      "outputs": [],
      "stateMutability": "nonpayable",
      "type": "function"
    },
    {
      "inputs": [
        {
          "internalType": "address",
          "name": "from",
          "type": "address"
        },
        {
          "internalType": "address",
          "name": "to",
          "type": "address"
        },
        {
          "internalType": "uint256[]",
          "name": "ids",
          "type": "uint256[]"
        },
        {
          "internalType": "uint256[]",
          "name": "amounts",
          "type": "uint256[]"
        },
        {
          "internalType": "bytes",
          "name": "data",
          "type": "bytes"
        }
      ],
      "name": "safeBatchTransferFrom",
      "outputs": [],
      "stateMutability": "nonpayable",
      "type": "function"
    },
    {
      "inputs": [
        {
          "internalType": "address",
          "name": "from",
          "type": "address"
        },
        {
          "internalType": "address",
          "name": "to",
          "type": "address"
        },
        {
          "internalType": "uint256",
          "name": "id",
          "type": "uint256"
        },
        {
          "internalType": "uint256",
          "name": "amount",
          "type": "uint256"
        },
        {
          "internalType": "bytes",
          "name": "data",
          "type": "bytes"
        }
      ],
      "name": "safeTransferFrom",
      "outputs": [],
      "stateMutability": "nonpayable",
      "type": "function"
    },
    {
      "inputs": [
        {
          "internalType": "address",
          "name": "operator",
          "type": "address"
        },
        {
          "internalType": "bool",
          "name": "approved",
          "type": "bool"
        }
      ],
      "name": "setApprovalForAll",
      "outputs": [],
      "stateMutability": "nonpayable",
      "type": "function"
    },
    {
      "inputs": [
        {
          "internalType": "bytes4",
          "name": "interfaceId",
          "type": "bytes4"
        }
      ],
      "name": "supportsInterface",
      "outputs": [
        {
          "internalType": "bool",
          "name": "",
          "type": "bool"
        }
      ],
      "stateMutability": "view",
      "type": "function",
      "constant": true
    },
    {
      "inputs": [],
      "name": "unpause",
      "outputs": [],
      "stateMutability": "nonpayable",
      "type": "function"
    },
    {
      "inputs": [
        {
          "internalType": "uint256",
          "name": "",
          "type": "uint256"
        }
      ],
      "name": "uri",
      "outputs": [
        {
          "internalType": "string",
          "name": "",
          "type": "string"
        }
      ],
      "stateMutability": "view",
      "type": "function",
      "constant": true
    },
    {
      "inputs": [
        {
          "internalType": "address",
          "name": "_EscaperoomAdmin",
          "type": "address"
        },
        {
          "internalType": "string",
          "name": "_Name",
          "type": "string"
        },
        {
          "internalType": "uint256",
          "name": "_FreeCollectables",
          "type": "uint256"
        }
      ],
      "name": "createNewEscaperoom",
      "outputs": [],
      "stateMutability": "nonpayable",
      "type": "function"
    },
    {
      "inputs": [
        {
          "internalType": "address",
          "name": "_visitor",
          "type": "address"
        }
      ],
      "name": "rewardVisitor",
      "outputs": [],
      "stateMutability": "nonpayable",
      "type": "function"
    },
    {
      "inputs": [
        {
          "internalType": "uint256",
          "name": "_id",
          "type": "uint256"
        },
        {
          "internalType": "address[]",
          "name": "_visitors",
          "type": "address[]"
        }
      ],
      "name": "rewardVisitorBatch",
      "outputs": [],
      "stateMutability": "nonpayable",
      "type": "function"
    },
    {
      "inputs": [
        {
          "internalType": "uint256",
          "name": "_Amount",
          "type": "uint256"
        }
      ],
      "name": "mintTokens",
      "outputs": [],
      "stateMutability": "payable",
      "type": "function",
      "payable": true
    },
    {
      "inputs": [
        {
          "internalType": "uint256",
          "name": "_id",
          "type": "uint256"
        },
        {
          "internalType": "uint256",
          "name": "_Amount",
          "type": "uint256"
        }
      ],
      "name": "mintAdmin",
      "outputs": [],
      "stateMutability": "nonpayable",
      "type": "function"
    },
    {
      "inputs": [
        {
          "internalType": "uint256",
          "name": "_newPricePerCollectable",
          "type": "uint256"
        }
      ],
      "name": "setPricePerCollectable",
      "outputs": [],
      "stateMutability": "nonpayable",
      "type": "function"
    },
    {
      "inputs": [
        {
          "internalType": "address payable",
          "name": "_reciever",
          "type": "address"
        }
      ],
      "name": "withdraw",
      "outputs": [],
      "stateMutability": "nonpayable",
      "type": "function"
    },
    {
      "inputs": [],
      "name": "getEscapeRoomAdminDetails",
      "outputs": [
        {
          "internalType": "string",
          "name": "EscapeRoomName",
          "type": "string"
        },
        {
          "internalType": "uint256",
          "name": "TokenBalance",
          "type": "uint256"
        }
      ],
      "stateMutability": "view",
      "type": "function",
      "constant": true
    }
  ],
  "bytecode": "0x6080604052600060065560006007553480156200001b57600080fd5b506040518060600160405280603881526020016200465260389139806200006b7f01ffc9a700000000000000000000000000000000000000000000000000000000640100000000620001b5810204565b6200007f8164010000000062000287810204565b620000b37fd9b67a2600000000000000000000000000000000000000000000000000000000640100000000620001b5810204565b620000e77f0e89341c00000000000000000000000000000000000000000000000000000000640100000000620001b5810204565b506005805460ff191690556200011a60006200010b640100000000620002a0810204565b640100000000620002a5810204565b604080517f4d494e5445525f524f4c450000000000000000000000000000000000000000008152905190819003600b01902062000164906200010b640100000000620002a0810204565b604080517f5041555345525f524f4c450000000000000000000000000000000000000000008152905190819003600b019020620001ae906200010b640100000000620002a0810204565b506200047a565b7fffffffff0000000000000000000000000000000000000000000000000000000080821614156200024757604080517f08c379a000000000000000000000000000000000000000000000000000000000815260206004820152601c60248201527f4552433136353a20696e76616c696420696e7465726661636520696400000000604482015290519081900360640190fd5b7fffffffff00000000000000000000000000000000000000000000000000000000166000908152600160208190526040909120805460ff19169091179055565b80516200029c906004906020840190620003d8565b5050565b335b90565b6200029c8282640100000000620002ba810204565b6000828152602081905260409020620002e2908264010000000062003a396200033f82021704565b156200029c57620002fb640100000000620002a0810204565b600160a060020a031681600160a060020a0316837f2f8788117e7eff1d82e926ec794901d17c78024a50270940304540a733656f0d60405160405180910390a45050565b60006200035f83600160a060020a03841664010000000062000368810204565b90505b92915050565b60006200037f8383640100000000620003c0810204565b620003b75750815460018181018455600084815260208082209093018490558454848252828601909352604090209190915562000362565b50600062000362565b60009081526001919091016020526040902054151590565b828054600181600116156101000203166002900490600052602060002090601f016020900481019282601f106200041b57805160ff19168380011785556200044b565b828001600101855582156200044b579182015b828111156200044b5782518255916020019190600101906200042e565b50620004599291506200045d565b5090565b620002a291905b8082111562000459576000815560010162000464565b6141c8806200048a6000396000f3fe60806040526004361061021d5760003560e060020a900480638456cb5911610127578063b6498859116100af578063d547741f11610073578063d547741f14611099578063e63ab1e9146110d2578063e985e9c5146110e7578063f242432a14611122578063f5298aca146111fa5761021d565b8063b649885914610fe2578063bcff121014611012578063c47cbb1414611045578063ca15c8731461105a578063d5391393146110845761021d565b806397304ced116100f657806397304ced14610ddc578063a217fddf14610df9578063a22cb46514610e0e578063a8a3b13d14610e49578063b30ca4d814610f1d5761021d565b80638456cb5914610d0f57806385aa4cde14610d245780639010d07c14610d5757806391d1485414610da35761021d565b80633f4ba83a116101aa57806351cff8d91161017957806351cff8d914610a205780635c975abb14610a535780636b20c45414610a68578063731133e914610bac578063834ce05014610c7b5761021d565b80633f4ba83a146108485780634049ffca1461085d5780634e1273f4146108725780634e135adb146109f65761021d565b80631f7fdffa116101f15780631f7fdffa1461040d578063248a9ca3146105d85780632eb2c2d6146106025780632f2ff15d146107d657806336568abe1461080f5761021d565b8062fdd58e1461022257806301ffc9a71461026d5780630841a43d146102b55780630e89341c1461036e575b600080fd5b34801561022e57600080fd5b5061025b6004803603604081101561024557600080fd5b50600160a060020a038135169060200135611239565b60408051918252519081900360200190f35b34801561027957600080fd5b506102a16004803603602081101561029057600080fd5b5035600160e060020a0319166112ae565b604080519115158252519081900360200190f35b3480156102c157600080fd5b5061036c600480360360408110156102d857600080fd5b813591908101906040810160208201356401000000008111156102fa57600080fd5b82018360208201111561030c57600080fd5b8035906020019184602083028401116401000000008311171561032e57600080fd5b9190808060200260200160405190810160405280939291908181526020018383602002808284376000920191909152509295506112cd945050505050565b005b34801561037a57600080fd5b506103986004803603602081101561039157600080fd5b50356113f8565b6040805160208082528351818301528351919283929083019185019080838360005b838110156103d25781810151838201526020016103ba565b50505050905090810190601f1680156103ff5780820380516001836020036101000a031916815260200191505b509250505060405180910390f35b34801561041957600080fd5b5061036c6004803603608081101561043057600080fd5b600160a060020a03823516919081019060408101602082013564010000000081111561045b57600080fd5b82018360208201111561046d57600080fd5b8035906020019184602083028401116401000000008311171561048f57600080fd5b91908080602002602001604051908101604052809392919081815260200183836020028082843760009201919091525092959493602081019350359150506401000000008111156104df57600080fd5b8201836020820111156104f157600080fd5b8035906020019184602083028401116401000000008311171561051357600080fd5b919080806020026020016040519081016040528093929190818152602001838360200280828437600092019190915250929594936020810193503591505064010000000081111561056357600080fd5b82018360208201111561057557600080fd5b8035906020019184600183028401116401000000008311171561059757600080fd5b91908080601f016020809104026020016040519081016040528093929190818152602001838380828437600092019190915250929550611490945050505050565b3480156105e457600080fd5b5061025b600480360360208110156105fb57600080fd5b5035611523565b34801561060e57600080fd5b5061036c600480360360a081101561062557600080fd5b600160a060020a03823581169260208101359091169181019060608101604082013564010000000081111561065957600080fd5b82018360208201111561066b57600080fd5b8035906020019184602083028401116401000000008311171561068d57600080fd5b91908080602002602001604051908101604052809392919081815260200183836020028082843760009201919091525092959493602081019350359150506401000000008111156106dd57600080fd5b8201836020820111156106ef57600080fd5b8035906020019184602083028401116401000000008311171561071157600080fd5b919080806020026020016040519081016040528093929190818152602001838360200280828437600092019190915250929594936020810193503591505064010000000081111561076157600080fd5b82018360208201111561077357600080fd5b8035906020019184600183028401116401000000008311171561079557600080fd5b91908080601f016020809104026020016040519081016040528093929190818152602001838380828437600092019190915250929550611538945050505050565b3480156107e257600080fd5b5061036c600480360360408110156107f957600080fd5b5080359060200135600160a060020a0316611844565b34801561081b57600080fd5b5061036c6004803603604081101561083257600080fd5b5080359060200135600160a060020a03166118ae565b34801561085457600080fd5b5061036c611912565b34801561086957600080fd5b5061025b611998565b34801561087e57600080fd5b506109a66004803603604081101561089557600080fd5b8101906020810181356401000000008111156108b057600080fd5b8201836020820111156108c257600080fd5b803590602001918460208302840111640100000000831117156108e457600080fd5b919080806020026020016040519081016040528093929190818152602001838360200280828437600092019190915250929594936020810193503591505064010000000081111561093457600080fd5b82018360208201111561094657600080fd5b8035906020019184602083028401116401000000008311171561096857600080fd5b91908080602002602001604051908101604052809392919081815260200183836020028082843760009201919091525092955061199e945050505050565b60408051602080825283518183015283519192839290830191858101910280838360005b838110156109e25781810151838201526020016109ca565b505050509050019250505060405180910390f35b348015610a0257600080fd5b5061036c60048036036020811015610a1957600080fd5b5035611b0b565b348015610a2c57600080fd5b5061036c60048036036020811015610a4357600080fd5b5035600160a060020a0316611b97565b348015610a5f57600080fd5b506102a1611c91565b348015610a7457600080fd5b5061036c60048036036060811015610a8b57600080fd5b600160a060020a038235169190810190604081016020820135640100000000811115610ab657600080fd5b820183602082011115610ac857600080fd5b80359060200191846020830284011164010000000083111715610aea57600080fd5b9190808060200260200160405190810160405280939291908181526020018383602002808284376000920191909152509295949360208101935035915050640100000000811115610b3a57600080fd5b820183602082011115610b4c57600080fd5b80359060200191846020830284011164010000000083111715610b6e57600080fd5b919080806020026020016040519081016040528093929190818152602001838360200280828437600092019190915250929550611c9b945050505050565b348015610bb857600080fd5b5061036c60048036036080811015610bcf57600080fd5b600160a060020a038235169160208101359160408201359190810190608081016060820135640100000000811115610c0657600080fd5b820183602082011115610c1857600080fd5b80359060200191846001830284011164010000000083111715610c3a57600080fd5b91908080601f016020809104026020016040519081016040528093929190818152602001838380828437600092019190915250929550611d12945050505050565b348015610c8757600080fd5b50610c90611d9a565b6040518080602001838152602001828103825284818151815260200191508051906020019080838360005b83811015610cd3578181015183820152602001610cbb565b50505050905090810190601f168015610d005780820380516001836020036101000a031916815260200191505b50935050505060405180910390f35b348015610d1b57600080fd5b5061036c611e5c565b348015610d3057600080fd5b5061025b60048036036020811015610d4757600080fd5b5035600160a060020a0316611ee0565b348015610d6357600080fd5b50610d8760048036036040811015610d7a57600080fd5b5080359060200135611ef2565b60408051600160a060020a039092168252519081900360200190f35b348015610daf57600080fd5b506102a160048036036040811015610dc657600080fd5b5080359060200135600160a060020a0316611f17565b61036c60048036036020811015610df257600080fd5b5035611f35565b348015610e0557600080fd5b5061025b61207e565b348015610e1a57600080fd5b5061036c60048036036040811015610e3157600080fd5b50600160a060020a0381351690602001351515612083565b348015610e5557600080fd5b50610e7360048036036020811015610e6c57600080fd5b5035612175565b604051808681526020018060200185600160a060020a0316600160a060020a0316815260200184815260200183151515158152602001828103825286818151815260200191508051906020019080838360005b83811015610ede578181015183820152602001610ec6565b50505050905090810190601f168015610f0b5780820380516001836020036101000a031916815260200191505b50965050505050505060405180910390f35b348015610f2957600080fd5b5061036c60048036036060811015610f4057600080fd5b600160a060020a038235169190810190604081016020820135640100000000811115610f6b57600080fd5b820183602082011115610f7d57600080fd5b80359060200191846001830284011164010000000083111715610f9f57600080fd5b91908080601f016020809104026020016040519081016040528093929190818152602001838380828437600092019190915250929550509135925061223d915050565b348015610fee57600080fd5b5061036c6004803603604081101561100557600080fd5b5080359060200135612432565b34801561101e57600080fd5b5061036c6004803603602081101561103557600080fd5b5035600160a060020a031661254f565b34801561105157600080fd5b5061025b612664565b34801561106657600080fd5b5061025b6004803603602081101561107d57600080fd5b503561266a565b34801561109057600080fd5b5061025b612681565b3480156110a557600080fd5b5061036c600480360360408110156110bc57600080fd5b5080359060200135600160a060020a03166126b6565b3480156110de57600080fd5b5061025b612712565b3480156110f357600080fd5b506102a16004803603604081101561110a57600080fd5b50600160a060020a0381358116916020013516612747565b34801561112e57600080fd5b5061036c600480360360a081101561114557600080fd5b600160a060020a03823581169260208101359091169160408201359160608101359181019060a08101608082013564010000000081111561118557600080fd5b82018360208201111561119757600080fd5b803590602001918460018302840111640100000000831117156111b957600080fd5b91908080601f016020809104026020016040519081016040528093929190818152602001838380828437600092019190915250929550612775945050505050565b34801561120657600080fd5b5061036c6004803603606081101561121d57600080fd5b50600160a060020a03813516906020810135906040013561294c565b6000600160a060020a0383166112835760405160e560020a62461bcd02815260040180806020018281038252602b815260200180613d76602b913960400191505060405180910390fd5b506000818152600260209081526040808320600160a060020a03861684529091529020545b92915050565b600160e060020a03191660009081526001602052604090205460ff1690565b33600090815260096020526040902054821461131d5760405160e560020a62461bcd02815260040180806020018281038252602e815260200180613fb4602e913960400191505060405180910390fd5b60005b81518110156113f35761134682828151811061133857fe5b602002602001015184611239565b6113eb576113a03383838151811061135a57fe5b60200260200101518560016040518060400160405280600281526020017f3078000000000000000000000000000000000000000000000000000000000000815250612775565b828282815181106113ad57fe5b6020026020010151600160a060020a03167f08dcc1ac80d12aee46948ffde43bee0bba6bfc44fdcf14b55ba8cee9249213f560405160405180910390a35b600101611320565b505050565b60048054604080516020601f60026000196101006001881615020190951694909404938401819004810282018101909252828152606093909290918301828280156114845780601f1061145957610100808354040283529160200191611484565b820191906000526020600020905b81548152906001019060200180831161146757829003601f168201915b50505050509050919050565b604080517f4d494e5445525f524f4c450000000000000000000000000000000000000000008152905190819003600b0190206114d3906114ce6129c3565b611f17565b6115115760405160e560020a62461bcd028152600401808060200182810382526038815260200180613ef56038913960400191505060405180910390fd5b61151d848484846129c7565b50505050565b60009081526020819052604090206002015490565b815183511461157b5760405160e560020a62461bcd02815260040180806020018281038252602881526020018061411b6028913960400191505060405180910390fd5b600160a060020a0384166115c35760405160e560020a62461bcd028152600401808060200182810382526025815260200180613e7b6025913960400191505060405180910390fd5b6115cb6129c3565b600160a060020a031685600160a060020a031614806115f657506115f6856115f16129c3565b612747565b6116345760405160e560020a62461bcd028152600401808060200182810382526032815260200180613ea06032913960400191505060405180910390fd5b600061163e6129c3565b905061164e818787878787612c22565b60005b845181101561175457600085828151811061166857fe5b60200260200101519050600085838151811061168057fe5b602002602001015190506116ed816040518060600160405280602a8152602001613f2d602a91396002600086815260200190815260200160002060008d600160a060020a0316600160a060020a0316815260200190815260200160002054612c309092919063ffffffff16565b6000838152600260209081526040808320600160a060020a038e811685529252808320939093558a16815220546117249082612cca565b6000928352600260209081526040808520600160a060020a038c1686529091529092209190915550600101611651565b5084600160a060020a031686600160a060020a031682600160a060020a03167f4a39dc06d4c0dbc64b70af90fd698a233a518aa5d07e595d983b8c0526c8f7fb8787604051808060200180602001838103835285818151815260200191508051906020019060200280838360005b838110156117da5781810151838201526020016117c2565b50505050905001838103825284818151815260200191508051906020019060200280838360005b83811015611819578181015183820152602001611801565b5050505090500194505050505060405180910390a461183c818787878787612d27565b505050505050565b600082815260208190526040902060020154611862906114ce6129c3565b6118a05760405160e560020a62461bcd02815260040180806020018281038252602f815260200180613d47602f913960400191505060405180910390fd5b6118aa828261308d565b5050565b6118b66129c3565b600160a060020a031681600160a060020a0316146119085760405160e560020a62461bcd02815260040180806020018281038252602f815260200180614164602f913960400191505060405180910390fd5b6118aa82826130fc565b604080517f5041555345525f524f4c450000000000000000000000000000000000000000008152905190819003600b019020611950906114ce6129c3565b61198e5760405160e560020a62461bcd02815260040180806020018281038252603b815260200180614032603b913960400191505060405180910390fd5b61199661316b565b565b60065481565b606081518351146119e35760405160e560020a62461bcd0281526004018080602001828103825260298152602001806140f26029913960400191505060405180910390fd5b60608351604051908082528060200260200182016040528015611a10578160200160208202803883390190505b50905060005b8451811015611b03576000600160a060020a0316858281518110611a3657fe5b6020026020010151600160a060020a03161415611a875760405160e560020a62461bcd028152600401808060200182810382526031815260200180613da16031913960400191505060405180910390fd5b60026000858381518110611a9757fe5b602002602001015181526020019081526020016000206000868381518110611abb57fe5b6020026020010151600160a060020a0316600160a060020a0316815260200190815260200160002054828281518110611af057fe5b6020908102919091010152600101611a16565b509392505050565b611b16600033611f17565b1515600114611b595760405160e560020a62461bcd02815260040180806020018281038252603c815260200180613f78603c913960400191505060405180910390fd5b600781905560408051828152905133917f6d55988fd84c3eae3398916f51ca9d47bf4e053e5a444b72ee7583fc0143ebc3919081900360200190a250565b611ba2600033611f17565b1515600114611be55760405160e560020a62461bcd02815260040180806020018281038252603c815260200180613f78603c913960400191505060405180910390fd5b604051303190600090600160a060020a0384169083908381818185875af1925050503d8060008114611c33576040519150601f19603f3d011682016040523d82523d6000602084013e611c38565b606091505b50509050806113f3576040805160e560020a62461bcd02815260206004820152601060248201527f5472616e73666572206661696c65642e00000000000000000000000000000000604482015290519081900360640190fd5b60055460ff165b90565b611ca36129c3565b600160a060020a031683600160a060020a03161480611cc95750611cc9836115f16129c3565b611d075760405160e560020a62461bcd028152600401808060200182810382526029815260200180613e226029913960400191505060405180910390fd5b6113f3838383613215565b604080517f4d494e5445525f524f4c450000000000000000000000000000000000000000008152905190819003600b019020611d50906114ce6129c3565b611d8e5760405160e560020a62461bcd028152600401808060200182810382526038815260200180613ef56038913960400191505060405180910390fd5b61151d84848484613489565b3360009081526009602090815260408083205480845260088352818420600190810180548451600293821615610100026000190190911692909204601f81018690048602830186019094528382526060959492939192909190830182828015611e445780601f10611e1957610100808354040283529160200191611e44565b820191906000526020600020905b815481529060010190602001808311611e2757829003601f168201915b50505050509250611e553382611239565b9150509091565b604080517f5041555345525f524f4c450000000000000000000000000000000000000000008152905190819003600b019020611e9a906114ce6129c3565b611ed85760405160e560020a62461bcd02815260040180806020018281038252603981526020018061406d6039913960400191505060405180910390fd5b611996613593565b60096020526000908152604090205481565b6000828152602081905260408120611f10908363ffffffff61362416565b9392505050565b6000828152602081905260408120611f10908363ffffffff61363016565b3360009081526009602052604090205460008211611f9d576040805160e560020a62461bcd02815260206004820152601a60248201527f4552524f523a205f416d6f756e74206d757374206265203e2030000000000000604482015290519081900360640190fd5b600754611fb190839063ffffffff61364516565b3414612007576040805160e560020a62461bcd02815260206004820152601f60248201527f4552524f523a20546f6f206d7563682f6c6573732065746865722073656e7400604482015290519081900360640190fd5b6000818152600860209081526040808320600201548151928301909152918152600160a060020a039091169061204290829084908690613489565b600082815260086020526040902060030154612064908463ffffffff612cca16565b600092835260086020526040909220600301919091555050565b600081565b81600160a060020a03166120956129c3565b600160a060020a031614156120de5760405160e560020a62461bcd0281526004018080602001828103825260298152602001806140c96029913960400191505060405180910390fd5b80600360006120eb6129c3565b600160a060020a03908116825260208083019390935260409182016000908120918716808252919093529120805460ff19169215159290921790915561212f6129c3565b6040805184151581529051600160a060020a0392909216917f17307eab39ab6107e8899845ad3d59bd9653f200f220920489ca2b5937696c319181900360200190a35050565b6008602090815260009182526040918290208054600180830180548651600293821615610100026000190190911692909204601f8101869004860283018601909652858252919492939092908301828280156122125780601f106121e757610100808354040283529160200191612212565b820191906000526020600020905b8154815290600101906020018083116121f557829003601f168201915b50505050600283015460038401546004909401549293600160a060020a039091169290915060ff1685565b612248600033611f17565b151560011461228b5760405160e560020a62461bcd02815260040180806020018281038252603c815260200180613f78603c913960400191505060405180910390fd5b600160a060020a0383166122d35760405160e560020a62461bcd028152600401808060200182810382526022815260200180613fe26022913960400191505060405180910390fd5b600160a060020a0383166000908152600960205260409020541561232b5760405160e560020a62461bcd02815260040180806020018281038252602e815260200180614004602e913960400191505060405180910390fd5b60065461233f90600163ffffffff612cca16565b6006819055600160a060020a038416600090815260096020526040902055612365613bf6565b6006548082526020808301858152600160a060020a0387166040808601919091526060850186905260016080860181905260009485526008845293208451815590518051859492936123bb938501920190613c30565b5060408281015160028301805473ffffffffffffffffffffffffffffffffffffffff1916600160a060020a03909216919091179055606083015160038301556080909201516004909101805460ff19169115159190911790556006548151602081019092526000825261151d918691908590613489565b61243d600033611f17565b15156001146124805760405160e560020a62461bcd02815260040180806020018281038252603c815260200180613f78603c913960400191505060405180910390fd5b600081116124d8576040805160e560020a62461bcd02815260206004820152601a60248201527f4552524f523a205f416d6f756e74206d757374206265203e2030000000000000604482015290519081900360640190fd5b6000828152600860209081526040808320600201548151928301909152918152600160a060020a039091169061251390829085908590613489565b600083815260086020526040902060030154612535908363ffffffff612cca16565b600093845260086020526040909320600301929092555050565b336000908152600960205260409020548061259e5760405160e560020a62461bcd02815260040180806020018281038252602e815260200180613fb4602e913960400191505060405180910390fd5b6125a88282611239565b156125e75760405160e560020a62461bcd0281526004018080602001828103825260238152602001806140a66023913960400191505060405180910390fd5b61262a33838360016040518060400160405280600281526020017f3078000000000000000000000000000000000000000000000000000000000000815250612775565b6040518190600160a060020a038416907f08dcc1ac80d12aee46948ffde43bee0bba6bfc44fdcf14b55ba8cee9249213f590600090a35050565b60075481565b60008181526020819052604081206112a8906136a1565b604080517f4d494e5445525f524f4c450000000000000000000000000000000000000000008152905190819003600b01902081565b6000828152602081905260409020600201546126d4906114ce6129c3565b6119085760405160e560020a62461bcd028152600401808060200182810382526030815260200180613e4b6030913960400191505060405180910390fd5b604080517f5041555345525f524f4c450000000000000000000000000000000000000000008152905190819003600b01902081565b600160a060020a03918216600090815260036020908152604080832093909416825291909152205460ff1690565b600160a060020a0384166127bd5760405160e560020a62461bcd028152600401808060200182810382526025815260200180613e7b6025913960400191505060405180910390fd5b6127c56129c3565b600160a060020a031685600160a060020a031614806127eb57506127eb856115f16129c3565b6128295760405160e560020a62461bcd028152600401808060200182810382526029815260200180613e226029913960400191505060405180910390fd5b60006128336129c3565b9050612853818787612844886136ac565b61284d886136ac565b87612c22565b6128a0836040518060600160405280602a8152602001613f2d602a91396000878152600260209081526040808320600160a060020a038d168452909152902054919063ffffffff612c3016565b6000858152600260209081526040808320600160a060020a038b811685529252808320939093558716815220546128d79084612cca565b6000858152600260209081526040808320600160a060020a03808b168086529184529382902094909455805188815291820187905280518a8416938616927fc3d58168c5ae7397731d063d5bbf3d657854427343f4c083240f7aacaa2d0f6292908290030190a461183c8187878787876136f0565b6129546129c3565b600160a060020a031683600160a060020a0316148061297a575061297a836115f16129c3565b6129b85760405160e560020a62461bcd028152600401808060200182810382526029815260200180613e226029913960400191505060405180910390fd5b6113f38383836138a2565b3390565b600160a060020a038416612a0f5760405160e560020a62461bcd0281526004018080602001828103825260218152602001806141436021913960400191505060405180910390fd5b8151835114612a525760405160e560020a62461bcd02815260040180806020018281038252602881526020018061411b6028913960400191505060405180910390fd5b6000612a5c6129c3565b9050612a6d81600087878787612c22565b60005b8451811015612b3157612ae860026000878481518110612a8c57fe5b60200260200101518152602001908152602001600020600088600160a060020a0316600160a060020a0316815260200190815260200160002054858381518110612ad257fe5b6020026020010151612cca90919063ffffffff16565b60026000878481518110612af857fe5b60209081029190910181015182528181019290925260409081016000908120600160a060020a038b168252909252902055600101612a70565b5084600160a060020a03166000600160a060020a031682600160a060020a03167f4a39dc06d4c0dbc64b70af90fd698a233a518aa5d07e595d983b8c0526c8f7fb8787604051808060200180602001838103835285818151815260200191508051906020019060200280838360005b83811015612bb8578181015183820152602001612ba0565b50505050905001838103825284818151815260200191508051906020019060200280838360005b83811015612bf7578181015183820152602001612bdf565b5050505090500194505050505060405180910390a4612c1b81600087878787612d27565b5050505050565b61183c8686868686866139de565b60008184841115612cc25760405160e560020a62461bcd0281526004018080602001828103825283818151815260200191508051906020019080838360005b83811015612c87578181015183820152602001612c6f565b50505050905090810190601f168015612cb45780820380516001836020036101000a031916815260200191505b509250505060405180910390fd5b505050900390565b600082820183811015611f10576040805160e560020a62461bcd02815260206004820152601b60248201527f536166654d6174683a206164646974696f6e206f766572666c6f770000000000604482015290519081900360640190fd5b612d3984600160a060020a0316613a33565b1561183c5783600160a060020a031663bc197c8187878686866040518663ffffffff1660e060020a0281526004018086600160a060020a0316600160a060020a0316815260200185600160a060020a0316600160a060020a03168152602001806020018060200180602001848103845287818151815260200191508051906020019060200280838360005b83811015612ddc578181015183820152602001612dc4565b50505050905001848103835286818151815260200191508051906020019060200280838360005b83811015612e1b578181015183820152602001612e03565b50505050905001848103825285818151815260200191508051906020019080838360005b83811015612e57578181015183820152602001612e3f565b50505050905090810190601f168015612e845780820380516001836020036101000a031916815260200191505b5098505050505050505050602060405180830381600087803b158015612ea957600080fd5b505af1925050508015612ece57506040513d6020811015612ec957600080fd5b505160015b613019576040516000815260443d1015612eea57506000612f8a565b60046000803e60e060020a600051046308c379a08114612f0e576000915050612f8a565b60043d036004833e81513d602482011167ffffffffffffffff82111715612f3a57600092505050612f8a565b808301805167ffffffffffffffff811115612f5c576000945050505050612f8a565b8060208301013d8601811115612f7a57600095505050505050612f8a565b601f01601f191660405250925050505b80612f955750612fdf565b60405160e560020a62461bcd028152602060048201818152835160248401528351849391928392604401919085019080838360008315612c87578181015183820152602001612c6f565b60405160e560020a62461bcd028152600401808060200182810382526034815260200180613cc96034913960400191505060405180910390fd5b600160e060020a031981167fbc197c8100000000000000000000000000000000000000000000000000000000146130845760405160e560020a62461bcd028152600401808060200182810382526028815260200180613d1f6028913960400191505060405180910390fd5b50505050505050565b60008281526020819052604090206130ab908263ffffffff613a3916565b156118aa576130b86129c3565b600160a060020a031681600160a060020a0316837f2f8788117e7eff1d82e926ec794901d17c78024a50270940304540a733656f0d60405160405180910390a45050565b600082815260208190526040902061311a908263ffffffff613a4e16565b156118aa576131276129c3565b600160a060020a031681600160a060020a0316837ff6391f5c32d9c69d2a47ea670b442974b53935d1edc7fd64eb21e047a839171b60405160405180910390a45050565b60055460ff166131c5576040805160e560020a62461bcd02815260206004820152601460248201527f5061757361626c653a206e6f7420706175736564000000000000000000000000604482015290519081900360640190fd5b6005805460ff191690557f5db9ee0a495bf2e6ff9c91a7834c1ba4fdd244a5e8aa4e537bd38aeae4b073aa6131f86129c3565b60408051600160a060020a039092168252519081900360200190a1565b600160a060020a03831661325d5760405160e560020a62461bcd028152600401808060200182810382526023815260200180613ed26023913960400191505060405180910390fd5b80518251146132a05760405160e560020a62461bcd02815260040180806020018281038252602881526020018061411b6028913960400191505060405180910390fd5b60006132aa6129c3565b90506132ca81856000868660405180602001604052806000815250612c22565b60005b83518110156133a85761335f8382815181106132e557fe5b6020026020010151604051806060016040528060248152602001613dd2602491396002600088868151811061331657fe5b60200260200101518152602001908152602001600020600089600160a060020a0316600160a060020a0316815260200190815260200160002054612c309092919063ffffffff16565b6002600086848151811061336f57fe5b60209081029190910181015182528181019290925260409081016000908120600160a060020a038a1682529092529020556001016132cd565b506000600160a060020a031684600160a060020a031682600160a060020a03167f4a39dc06d4c0dbc64b70af90fd698a233a518aa5d07e595d983b8c0526c8f7fb8686604051808060200180602001838103835285818151815260200191508051906020019060200280838360005b8381101561342f578181015183820152602001613417565b50505050905001838103825284818151815260200191508051906020019060200280838360005b8381101561346e578181015183820152602001613456565b5050505090500194505050505060405180910390a450505050565b600160a060020a0384166134d15760405160e560020a62461bcd0281526004018080602001828103825260218152602001806141436021913960400191505060405180910390fd5b60006134db6129c3565b90506134ed81600087612844886136ac565b6000848152600260209081526040808320600160a060020a0389168452909152902054613520908463ffffffff612cca16565b6000858152600260209081526040808320600160a060020a03808b16808652918452828520959095558151898152928301889052815190948616927fc3d58168c5ae7397731d063d5bbf3d657854427343f4c083240f7aacaa2d0f6292908290030190a4612c1b816000878787876136f0565b60055460ff16156135ee576040805160e560020a62461bcd02815260206004820152601060248201527f5061757361626c653a2070617573656400000000000000000000000000000000604482015290519081900360640190fd5b6005805460ff191660011790557f62e78cea01bee320cd4e420270b5ea74000d11b0c9f74754ebdbfc544b05a2586131f86129c3565b6000611f108383613a63565b6000611f1083600160a060020a038416613aca565b600082613654575060006112a8565b8282028284828161366157fe5b0414611f105760405160e560020a62461bcd028152600401808060200182810382526021815260200180613f576021913960400191505060405180910390fd5b60006112a882613ae2565b6040805160018082528183019092526060918291906020808301908038833901905050905082816000815181106136df57fe5b602090810291909101015292915050565b61370284600160a060020a0316613a33565b1561183c5783600160a060020a031663f23a6e6187878686866040518663ffffffff1660e060020a0281526004018086600160a060020a0316600160a060020a0316815260200185600160a060020a0316600160a060020a0316815260200184815260200183815260200180602001828103825283818151815260200191508051906020019080838360005b838110156137a657818101518382015260200161378e565b50505050905090810190601f1680156137d35780820380516001836020036101000a031916815260200191505b509650505050505050602060405180830381600087803b1580156137f657600080fd5b505af192505050801561381b57506040513d602081101561381657600080fd5b505160015b613837576040516000815260443d1015612eea57506000612f8a565b600160e060020a031981167ff23a6e6100000000000000000000000000000000000000000000000000000000146130845760405160e560020a62461bcd028152600401808060200182810382526028815260200180613d1f6028913960400191505060405180910390fd5b600160a060020a0383166138ea5760405160e560020a62461bcd028152600401808060200182810382526023815260200180613ed26023913960400191505060405180910390fd5b60006138f46129c3565b905061392481856000613906876136ac565b61390f876136ac565b60405180602001604052806000815250612c22565b61397182604051806060016040528060248152602001613dd2602491396000868152600260209081526040808320600160a060020a038b168452909152902054919063ffffffff612c3016565b6000848152600260209081526040808320600160a060020a03808a16808652918452828520959095558151888152928301879052815193949093908616927fc3d58168c5ae7397731d063d5bbf3d657854427343f4c083240f7aacaa2d0f6292908290030190a450505050565b6139ec86868686868661183c565b6139f4611c91565b1561183c5760405160e560020a62461bcd02815260040180806020018281038252602c815260200180613df6602c913960400191505060405180910390fd5b3b151590565b6000611f1083600160a060020a038416613ae6565b6000611f1083600160a060020a038416613b30565b81546000908210613aa85760405160e560020a62461bcd028152600401808060200182810382526022815260200180613cfd6022913960400191505060405180910390fd5b826000018281548110613ab757fe5b9060005260206000200154905092915050565b60009081526001919091016020526040902054151590565b5490565b6000613af28383613aca565b613b28575081546001818101845560008481526020808220909301849055845484825282860190935260409020919091556112a8565b5060006112a8565b60008181526001830160205260408120548015613bec5783546000198083019190810190600090879083908110613b6357fe5b9060005260206000200154905080876000018481548110613b8057fe5b600091825260208083209091019290925582815260018981019092526040902090840190558654879080613bb057fe5b600190038181906000526020600020016000905590558660010160008781526020019081526020016000206000905560019450505050506112a8565b60009150506112a8565b6040518060a0016040528060008152602001606081526020016000600160a060020a03168152602001600081526020016000151581525090565b828054600181600116156101000203166002900490600052602060002090601f016020900481019282601f10613c7157805160ff1916838001178555613c9e565b82800160010185558215613c9e579182015b82811115613c9e578251825591602001919060010190613c83565b50613caa929150613cae565b5090565b611c9891905b80821115613caa5760008155600101613cb456fe455243313135353a207472616e7366657220746f206e6f6e2045524331313535526563656976657220696d706c656d656e746572456e756d657261626c655365743a20696e646578206f7574206f6620626f756e6473455243313135353a204552433131353552656365697665722072656a656374656420746f6b656e73416363657373436f6e74726f6c3a2073656e646572206d75737420626520616e2061646d696e20746f206772616e74455243313135353a2062616c616e636520717565727920666f7220746865207a65726f2061646472657373455243313135353a2062617463682062616c616e636520717565727920666f7220746865207a65726f2061646472657373455243313135353a206275726e20616d6f756e7420657863656564732062616c616e6365455243313135355061757361626c653a20746f6b656e207472616e73666572207768696c6520706175736564455243313135353a2063616c6c6572206973206e6f74206f776e6572206e6f7220617070726f766564416363657373436f6e74726f6c3a2073656e646572206d75737420626520616e2061646d696e20746f207265766f6b65455243313135353a207472616e7366657220746f20746865207a65726f2061646472657373455243313135353a207472616e736665722063616c6c6572206973206e6f74206f776e6572206e6f7220617070726f766564455243313135353a206275726e2066726f6d20746865207a65726f2061646472657373455243313135355072657365744d696e7465725061757365723a206d7573742068617665206d696e74657220726f6c6520746f206d696e74455243313135353a20696e73756666696369656e742062616c616e636520666f72207472616e73666572536166654d6174683a206d756c7469706c69636174696f6e206f766572666c6f774552524f523a2043616c6c696e67206164647265737320646f6573206e6f7420686176652044454641554c545f41444d494e5f524f4c4520726f6c654552524f523a2055736572206973206e6f7420616e2061646d696e206f662074686520457363617065726f6f6d214552524f523a205f457363617065726f6f6d41646d696e20697320696e76616c69644552524f523a205573657220616c72656164792068617320616e2065736361706520726f6f6d206163636f756e74455243313135355072657365744d696e7465725061757365723a206d75737420686176652070617573657220726f6c6520746f20756e7061757365455243313135355072657365744d696e7465725061757365723a206d75737420686176652070617573657220726f6c6520746f2070617573654552524f523a20557365722068617320636f6c6c65637461626c6520616c7265616479455243313135353a2073657474696e6720617070726f76616c2073746174757320666f722073656c66455243313135353a206163636f756e747320616e6420696473206c656e677468206d69736d61746368455243313135353a2069647320616e6420616d6f756e7473206c656e677468206d69736d61746368455243313135353a206d696e7420746f20746865207a65726f2061646472657373416363657373436f6e74726f6c3a2063616e206f6e6c792072656e6f756e636520726f6c657320666f722073656c66a264697066735822122036da06168bb0076e8b85a86cf2e39e4bdb064e9a1964c51c2a5525f5ac5e1e8364736f6c6343000602003368747470733a2f2f657263313135356d657461646174612e617a75726577656273697465732e6e65742f6170692f746f6b656e2f7b69647d",
  "source": "// SPDX-License-Identifier: MIT\r\npragma solidity ^0.6.0;\r\n\r\nimport \"@openzeppelin/contracts/presets/ERC1155PresetMinterPauser.sol\";\r\n\r\n/// @title A contract for collecting NFT as a reward for completing an Escape Room\r\n/// @author Arnoud Commandeur\r\n/// @notice At the moment 1 address is only able to have 1 type of NFT, in futere 1 address should be able to handle multiple NFT's (rooms to reward) \r\n/// @dev Contract based on OpenZeppelin ERC1155PresetMinterPauser.sol contract\r\ncontract Collectables is ERC1155PresetMinterPauser {\r\n\r\n    // Struct for escaperooms\r\n    struct s_Escaperoom {\r\n        uint _Id;\r\n        string _Name;\r\n        address _Admin;\r\n        uint _TotalCollectables;\r\n        bool _enabled;\r\n    }\r\n\r\n    /// @notice Number of Escape Rooms \r\n    /// @dev Only increase value, do not decrease value\r\n    /// @return Number of Escape Rooms which make use of this contract\r\n    uint256 public EscapeRoomCounter = 0;\r\n\r\n    /// @notice Price that an Escape Room holder must pay to the contract per token\r\n    /// @dev Price must be >= 0\r\n    /// @return The price per token\r\n    uint256 public PricePerCollectable = 0 wei;\r\n\r\n    /// @notice A mapping between de ID of an Escape Room and the details about the Escape Room\r\n    /// @dev The struct could be removed to save gas, data could be stored off line / IPFS\r\n    /// @return A struct about 1 particular Escape Room\r\n    mapping(uint => s_Escaperoom) public Escaperooms;\r\n\r\n\r\n    /// @notice A mapping between an Escape Room holder address and the ID of the Escape Room\r\n    /// @dev An address/admin can only have one Escape Room, should be changed to handle more than 1 Escape Room\r\n    /// @return The ID of the Escape Room which belongs to the address\r\n    mapping(address => uint) public EscaperoomAdmins;\r\n\r\n    /// @notice This event is emitted after rewarding the visitor with a new token\r\n    /// @dev This event can be used to update UI after recieving token\r\n    /// @param _visitor The address of the Escape Room visitor that recieved the token\r\n    /// @param _id The ID of the Escape Room\r\n    event visitorRewarded(address indexed _visitor, uint indexed _id);\r\n\r\n    /// @notice This event is emitted after the price per token was changed\r\n    /// @dev Price could be changed to Price per Escape Room\r\n    /// @param _admin The address of the admin of the contract\r\n    /// @param _pricePerCollectable The new price in wei per token a escape room holder must   \r\n    event pricePerCollectableUpdated(address indexed _admin, uint _pricePerCollectable);\r\n\r\n    /// @notice This function is executed when the contract is deployed to the Ethereum blockchain\r\n    /// @dev The URI is not in use yet, but can be used to retrieve off chain values about a token\r\n    constructor() public ERC1155PresetMinterPauser(\"https://erc1155metadata.azurewebsites.net/api/token/{id}\") {\r\n        // No code yet!\r\n    }\r\n\r\n    /// @notice This function creates a new Escape Room and gives free tokens once\r\n    /// @dev This function uses the OpenZeppelin Roles contract for checking the propriate address of the caller \r\n    /// @param _EscaperoomAdmin The address of the new admin of the new escape room\r\n    /// @param _Name The name of the new escape room\r\n    /// @param _FreeCollectables The number of tokens the new escape room will recieve for free\r\n    function createNewEscaperoom(address _EscaperoomAdmin, string memory _Name, uint _FreeCollectables) public {\r\n        require(hasRole(DEFAULT_ADMIN_ROLE,msg.sender) == true, \"ERROR: Calling address does not have DEFAULT_ADMIN_ROLE role\");\r\n        require(_FreeCollectables >= 0, \"ERROR: TotalCollectables must be >= 0\");\r\n        require(_EscaperoomAdmin != address(0), \"ERROR: _EscaperoomAdmin is invalid\");\r\n        require(EscaperoomAdmins[_EscaperoomAdmin] == 0, \"ERROR: User already has an escape room account\");\r\n\r\n        EscapeRoomCounter = EscapeRoomCounter.add(1);\r\n\r\n        EscaperoomAdmins[_EscaperoomAdmin] = EscapeRoomCounter;\r\n\r\n        s_Escaperoom memory tmpEscaperoom;\r\n        tmpEscaperoom._Id = EscapeRoomCounter;\r\n        tmpEscaperoom._Name = _Name;\r\n        tmpEscaperoom._Admin = _EscaperoomAdmin;\r\n        tmpEscaperoom._TotalCollectables = _FreeCollectables;\r\n        tmpEscaperoom._enabled = true;\r\n\r\n        Escaperooms[EscapeRoomCounter] = tmpEscaperoom;\r\n        _mint(_EscaperoomAdmin, EscapeRoomCounter, _FreeCollectables, \"\");\r\n\r\n    }\r\n\r\n    /// @notice This function rewards the visitor of an escape room. After rewarding the event visitorRewarded is emitted\r\n    /// @dev This function can only be called by the admin of the escape room \r\n    /// @param _visitor The visitor that must be rewarded\r\n//    function rewardVisitor(uint _id, address _visitor) public {\r\n    function rewardVisitor(address _visitor) public {\r\n        uint id = EscaperoomAdmins[msg.sender];\r\n\r\n//        require(EscaperoomAdmins[msg.sender] == _id, \"ERROR: User is not an admin of the Escaperoom!\");\r\n        require(id != 0, \"ERROR: User is not an admin of the Escaperoom!\");\r\n        require(balanceOf(_visitor, id) == 0, \"ERROR: User has collectable already\");\r\n        safeTransferFrom(msg.sender,_visitor,id,1,\"0x\");\r\n\r\n        // Emit event\r\n        emit visitorRewarded(_visitor, id);\r\n    }\r\n\r\n    /// @notice This function rewards multiple visitors of an escape room. After rewarding the event visitorRewarded is emitted per visitor\r\n    /// @dev Function could be rewritten to safeBatchTransferFrom. Only reward user when user has not already been rewarded \r\n    /// @param _id The ID of the escape room\r\n    /// @param _visitors The visitors that must be rewarded\r\n    function rewardVisitorBatch(uint _id, address[] memory _visitors) public {\r\n        require(EscaperoomAdmins[msg.sender] == _id, \"ERROR: User is not an admin of the Escaperoom!\");\r\n\r\n        for (uint256 i = 0; i < _visitors.length; ++i) {\r\n            // Only reward visitor who haven't finished the room yet\r\n            if (balanceOf(_visitors[i], _id) == 0) {\r\n                safeTransferFrom(msg.sender,_visitors[i],_id,1,\"0x\");\r\n\r\n                // Emit event\r\n                emit visitorRewarded(_visitors[i], _id);\r\n            }\r\n        }\r\n    }\r\n\r\n    /// @notice This function mints new tokens for a escape room after paying the correct amount of ether (tokens * price) \r\n    /// @dev Function can only be invoked by the admin of the escape room\r\n    /// @param _Amount The number of new tokens to mint\r\n    function mintTokens(uint _Amount) payable public {\r\n        uint id = EscaperoomAdmins[msg.sender];\r\n\r\n        require(EscaperoomAdmins[msg.sender] == id, \"ERROR: User is not an admin of the Escaperoom!\");\r\n        require(_Amount > 0, \"ERROR: _Amount must be > 0\");\r\n        require(msg.value == (_Amount.mul(PricePerCollectable)), \"ERROR: Too much/less ether sent\");\r\n\r\n        address EscaperoomAdmin = Escaperooms[id]._Admin;\r\n        _mint(EscaperoomAdmin, id, _Amount, \"\");\r\n        Escaperooms[id]._TotalCollectables = Escaperooms[id]._TotalCollectables.add(_Amount);\r\n    }\r\n\r\n    /// @notice This function mints new tokens for a escape room without paying ether \r\n    /// @dev Function can only be invoked by the admin of the contract (via OpenZeppeling membership)\r\n    /// @param _id The ID of the escape room\r\n    /// @param _Amount The number of new tokens to mint (for free)\r\n    function mintAdmin(uint _id, uint _Amount) public {\r\n        require(hasRole(DEFAULT_ADMIN_ROLE,msg.sender) == true, \"ERROR: Calling address does not have DEFAULT_ADMIN_ROLE role\");\r\n        require(_Amount > 0, \"ERROR: _Amount must be > 0\");\r\n\r\n        address EscaperoomAdmin = Escaperooms[_id]._Admin;\r\n        _mint(EscaperoomAdmin, _id, _Amount, \"\");\r\n        Escaperooms[_id]._TotalCollectables = Escaperooms[_id]._TotalCollectables.add(_Amount);\r\n    }\r\n\r\n    /// @notice This function sets the new price per token in wei and emits the pricePerCollectableUpdated after completing\r\n    /// @dev Function can only be invoked by the admin of the contract (via OpenZeppeling membership), price >= 0\r\n    /// @param _newPricePerCollectable The new price in wei per token for all escape rooms\r\n    function setPricePerCollectable(uint _newPricePerCollectable) public {\r\n        require(hasRole(DEFAULT_ADMIN_ROLE,msg.sender) == true, \"ERROR: Calling address does not have DEFAULT_ADMIN_ROLE role\");\r\n        require(_newPricePerCollectable >= 0, \"ERROR: _newPricePerCollectable must >= 0\");\r\n\r\n        PricePerCollectable = _newPricePerCollectable;\r\n        emit pricePerCollectableUpdated(msg.sender, _newPricePerCollectable);\r\n    }\r\n\r\n    /// @notice This function sends all collected Ether to the ADMIN of the contract\r\n    /// @dev Function can only be invoked by the admin of the contract (via OpenZeppeling membership)\r\n    /// @param _reciever Address who recieves the Ether\r\n    function withdraw(address payable _reciever) public {\r\n        require(hasRole(DEFAULT_ADMIN_ROLE,msg.sender) == true, \"ERROR: Calling address does not have DEFAULT_ADMIN_ROLE role\");\r\n        uint amount = address(this).balance;\r\n        (bool success, ) = _reciever.call.value(amount)(\"\");\r\n        require(success, \"Transfer failed.\");\r\n    }\r\n\r\n    /// @notice This returns the name and tokenbalance \r\n    /// @dev Function can be invoked by any admin\r\n    function getEscapeRoomAdminDetails() public view returns(string memory EscapeRoomName, uint TokenBalance) {\r\n        uint id = EscaperoomAdmins[msg.sender];\r\n\r\n        EscapeRoomName = Escaperooms[id]._Name;\r\n        TokenBalance = balanceOf(msg.sender, id);\r\n    }\r\n\r\n}",
  "sourcePath": "C:/Users/arnou/OneDrive - Infent/Infent/Blockchain/Escaperoom/contracts/Collectables.sol",
  "compiler": {
    "name": "solc",
    "version": "0.6.2+commit.bacdbe57.Emscripten.clang"
  },
  "schemaVersion": "3.2.5",
  "updatedAt": "2020-11-25T10:55:04.923Z",
  "networkType": "ethereum",
  "devdoc": {
    "author": "Arnoud Commandeur",
    "details": "Contract based on OpenZeppelin ERC1155PresetMinterPauser.sol contract",
    "methods": {
      "balanceOf(address,uint256)": {
        "details": "See {IERC1155-balanceOf}.     * Requirements:     * - `account` cannot be the zero address."
      },
      "balanceOfBatch(address[],uint256[])": {
        "details": "See {IERC1155-balanceOfBatch}.     * Requirements:     * - `accounts` and `ids` must have the same length."
      },
      "constructor": {
        "details": "The URI is not in use yet, but can be used to retrieve off chain values about a token"
      },
      "createNewEscaperoom(address,string,uint256)": {
        "details": "This function uses the OpenZeppelin Roles contract for checking the propriate address of the caller ",
        "params": {
          "_EscaperoomAdmin": "The address of the new admin of the new escape room",
          "_FreeCollectables": "The number of tokens the new escape room will recieve for free",
          "_Name": "The name of the new escape room"
        }
      },
      "getEscapeRoomAdminDetails()": {
        "details": "Function can be invoked by any admin"
      },
      "getRoleAdmin(bytes32)": {
        "details": "Returns the admin role that controls `role`. See {grantRole} and {revokeRole}.     * To change a role's admin, use {_setRoleAdmin}."
      },
      "getRoleMember(bytes32,uint256)": {
        "details": "Returns one of the accounts that have `role`. `index` must be a value between 0 and {getRoleMemberCount}, non-inclusive.     * Role bearers are not sorted in any particular way, and their ordering may change at any point.     * WARNING: When using {getRoleMember} and {getRoleMemberCount}, make sure you perform all queries on the same block. See the following https://forum.openzeppelin.com/t/iterating-over-elements-on-enumerableset-in-openzeppelin-contracts/2296[forum post] for more information."
      },
      "getRoleMemberCount(bytes32)": {
        "details": "Returns the number of accounts that have `role`. Can be used together with {getRoleMember} to enumerate all bearers of a role."
      },
      "grantRole(bytes32,address)": {
        "details": "Grants `role` to `account`.     * If `account` had not been already granted `role`, emits a {RoleGranted} event.     * Requirements:     * - the caller must have ``role``'s admin role."
      },
      "hasRole(bytes32,address)": {
        "details": "Returns `true` if `account` has been granted `role`."
      },
      "isApprovedForAll(address,address)": {
        "details": "See {IERC1155-isApprovedForAll}."
      },
      "mint(address,uint256,uint256,bytes)": {
        "details": "Creates `amount` new tokens for `to`, of token type `id`.     * See {ERC1155-_mint}.     * Requirements:     * - the caller must have the `MINTER_ROLE`."
      },
      "mintAdmin(uint256,uint256)": {
        "details": "Function can only be invoked by the admin of the contract (via OpenZeppeling membership)",
        "params": {
          "_Amount": "The number of new tokens to mint (for free)",
          "_id": "The ID of the escape room"
        }
      },
      "mintBatch(address,uint256[],uint256[],bytes)": {
        "details": "xref:ROOT:erc1155.adoc#batch-operations[Batched] variant of {mint}."
      },
      "mintTokens(uint256)": {
        "details": "Function can only be invoked by the admin of the escape room",
        "params": {
          "_Amount": "The number of new tokens to mint"
        }
      },
      "pause()": {
        "details": "Pauses all token transfers.     * See {ERC1155Pausable} and {Pausable-_pause}.     * Requirements:     * - the caller must have the `PAUSER_ROLE`."
      },
      "paused()": {
        "details": "Returns true if the contract is paused, and false otherwise."
      },
      "renounceRole(bytes32,address)": {
        "details": "Revokes `role` from the calling account.     * Roles are often managed via {grantRole} and {revokeRole}: this function's purpose is to provide a mechanism for accounts to lose their privileges if they are compromised (such as when a trusted device is misplaced).     * If the calling account had been granted `role`, emits a {RoleRevoked} event.     * Requirements:     * - the caller must be `account`."
      },
      "revokeRole(bytes32,address)": {
        "details": "Revokes `role` from `account`.     * If `account` had been granted `role`, emits a {RoleRevoked} event.     * Requirements:     * - the caller must have ``role``'s admin role."
      },
      "rewardVisitor(address)": {
        "details": "This function can only be called by the admin of the escape room ",
        "params": {
          "_visitor": "The visitor that must be rewarded"
        }
      },
      "rewardVisitorBatch(uint256,address[])": {
        "details": "Function could be rewritten to safeBatchTransferFrom. Only reward user when user has not already been rewarded ",
        "params": {
          "_id": "The ID of the escape room",
          "_visitors": "The visitors that must be rewarded"
        }
      },
      "safeBatchTransferFrom(address,address,uint256[],uint256[],bytes)": {
        "details": "See {IERC1155-safeBatchTransferFrom}."
      },
      "safeTransferFrom(address,address,uint256,uint256,bytes)": {
        "details": "See {IERC1155-safeTransferFrom}."
      },
      "setApprovalForAll(address,bool)": {
        "details": "See {IERC1155-setApprovalForAll}."
      },
      "setPricePerCollectable(uint256)": {
        "details": "Function can only be invoked by the admin of the contract (via OpenZeppeling membership), price >= 0",
        "params": {
          "_newPricePerCollectable": "The new price in wei per token for all escape rooms"
        }
      },
      "supportsInterface(bytes4)": {
        "details": "See {IERC165-supportsInterface}.     * Time complexity O(1), guaranteed to always use less than 30 000 gas."
      },
      "unpause()": {
        "details": "Unpauses all token transfers.     * See {ERC1155Pausable} and {Pausable-_unpause}.     * Requirements:     * - the caller must have the `PAUSER_ROLE`."
      },
      "uri(uint256)": {
        "details": "See {IERC1155MetadataURI-uri}.     * This implementation returns the same URI for *all* token types. It relies on the token type ID substitution mechanism https://eips.ethereum.org/EIPS/eip-1155#metadata[defined in the EIP].     * Clients calling this function must replace the `\\{id\\}` substring with the actual token type ID."
      },
      "withdraw(address)": {
        "details": "Function can only be invoked by the admin of the contract (via OpenZeppeling membership)",
        "params": {
          "_reciever": "Address who recieves the Ether"
        }
      }
    },
    "title": "A contract for collecting NFT as a reward for completing an Escape Room"
  },
  "userdoc": {
    "methods": {
      "constructor": "This function is executed when the contract is deployed to the Ethereum blockchain",
      "createNewEscaperoom(address,string,uint256)": {
        "notice": "This function creates a new Escape Room and gives free tokens once"
      },
      "getEscapeRoomAdminDetails()": {
        "notice": "This returns the name and tokenbalance "
      },
      "mintAdmin(uint256,uint256)": {
        "notice": "This function mints new tokens for a escape room without paying ether "
      },
      "mintTokens(uint256)": {
        "notice": "This function mints new tokens for a escape room after paying the correct amount of ether (tokens * price) "
      },
      "rewardVisitor(address)": {
        "notice": "This function rewards the visitor of an escape room. After rewarding the event visitorRewarded is emitted"
      },
      "rewardVisitorBatch(uint256,address[])": {
        "notice": "This function rewards multiple visitors of an escape room. After rewarding the event visitorRewarded is emitted per visitor"
      },
      "setPricePerCollectable(uint256)": {
        "notice": "This function sets the new price per token in wei and emits the pricePerCollectableUpdated after completing"
      },
      "withdraw(address)": {
        "notice": "This function sends all collected Ether to the ADMIN of the contract"
      }
    },
    "notice": "At the moment 1 address is only able to have 1 type of NFT, in futere 1 address should be able to handle multiple NFT's (rooms to reward) "
  }
}