{
  "contractName": "Collectables",
  "abi": [
    {
      "inputs": [],
      "stateMutability": "nonpayable",
      "type": "constructor"
    },
    {
      "anonymous": false,
      "inputs": [
        {
          "indexed": true,
          "internalType": "address",
          "name": "account",
          "type": "address"
        },
        {
          "indexed": true,
          "internalType": "address",
          "name": "operator",
          "type": "address"
        },
        {
          "indexed": false,
          "internalType": "bool",
          "name": "approved",
          "type": "bool"
        }
      ],
      "name": "ApprovalForAll",
      "type": "event"
    },
    {
      "anonymous": false,
      "inputs": [
        {
          "indexed": false,
          "internalType": "address",
          "name": "account",
          "type": "address"
        }
      ],
      "name": "Paused",
      "type": "event"
    },
    {
      "anonymous": false,
      "inputs": [
        {
          "indexed": true,
          "internalType": "bytes32",
          "name": "role",
          "type": "bytes32"
        },
        {
          "indexed": true,
          "internalType": "bytes32",
          "name": "previousAdminRole",
          "type": "bytes32"
        },
        {
          "indexed": true,
          "internalType": "bytes32",
          "name": "newAdminRole",
          "type": "bytes32"
        }
      ],
      "name": "RoleAdminChanged",
      "type": "event"
    },
    {
      "anonymous": false,
      "inputs": [
        {
          "indexed": true,
          "internalType": "bytes32",
          "name": "role",
          "type": "bytes32"
        },
        {
          "indexed": true,
          "internalType": "address",
          "name": "account",
          "type": "address"
        },
        {
          "indexed": true,
          "internalType": "address",
          "name": "sender",
          "type": "address"
        }
      ],
      "name": "RoleGranted",
      "type": "event"
    },
    {
      "anonymous": false,
      "inputs": [
        {
          "indexed": true,
          "internalType": "bytes32",
          "name": "role",
          "type": "bytes32"
        },
        {
          "indexed": true,
          "internalType": "address",
          "name": "account",
          "type": "address"
        },
        {
          "indexed": true,
          "internalType": "address",
          "name": "sender",
          "type": "address"
        }
      ],
      "name": "RoleRevoked",
      "type": "event"
    },
    {
      "anonymous": false,
      "inputs": [
        {
          "indexed": true,
          "internalType": "address",
          "name": "operator",
          "type": "address"
        },
        {
          "indexed": true,
          "internalType": "address",
          "name": "from",
          "type": "address"
        },
        {
          "indexed": true,
          "internalType": "address",
          "name": "to",
          "type": "address"
        },
        {
          "indexed": false,
          "internalType": "uint256[]",
          "name": "ids",
          "type": "uint256[]"
        },
        {
          "indexed": false,
          "internalType": "uint256[]",
          "name": "values",
          "type": "uint256[]"
        }
      ],
      "name": "TransferBatch",
      "type": "event"
    },
    {
      "anonymous": false,
      "inputs": [
        {
          "indexed": true,
          "internalType": "address",
          "name": "operator",
          "type": "address"
        },
        {
          "indexed": true,
          "internalType": "address",
          "name": "from",
          "type": "address"
        },
        {
          "indexed": true,
          "internalType": "address",
          "name": "to",
          "type": "address"
        },
        {
          "indexed": false,
          "internalType": "uint256",
          "name": "id",
          "type": "uint256"
        },
        {
          "indexed": false,
          "internalType": "uint256",
          "name": "value",
          "type": "uint256"
        }
      ],
      "name": "TransferSingle",
      "type": "event"
    },
    {
      "anonymous": false,
      "inputs": [
        {
          "indexed": false,
          "internalType": "string",
          "name": "value",
          "type": "string"
        },
        {
          "indexed": true,
          "internalType": "uint256",
          "name": "id",
          "type": "uint256"
        }
      ],
      "name": "URI",
      "type": "event"
    },
    {
      "anonymous": false,
      "inputs": [
        {
          "indexed": false,
          "internalType": "address",
          "name": "account",
          "type": "address"
        }
      ],
      "name": "Unpaused",
      "type": "event"
    },
    {
      "anonymous": false,
      "inputs": [
        {
          "indexed": true,
          "internalType": "address",
          "name": "_admin",
          "type": "address"
        },
        {
          "indexed": false,
          "internalType": "uint256",
          "name": "_pricePerCollectable",
          "type": "uint256"
        }
      ],
      "name": "pricePerCollectableUpdated",
      "type": "event"
    },
    {
      "anonymous": false,
      "inputs": [
        {
          "indexed": true,
          "internalType": "address",
          "name": "_visitor",
          "type": "address"
        },
        {
          "indexed": true,
          "internalType": "uint256",
          "name": "_id",
          "type": "uint256"
        }
      ],
      "name": "visitorRewarded",
      "type": "event"
    },
    {
      "inputs": [],
      "name": "DEFAULT_ADMIN_ROLE",
      "outputs": [
        {
          "internalType": "bytes32",
          "name": "",
          "type": "bytes32"
        }
      ],
      "stateMutability": "view",
      "type": "function",
      "constant": true
    },
    {
      "inputs": [],
      "name": "EscapeRoomCounter",
      "outputs": [
        {
          "internalType": "uint256",
          "name": "",
          "type": "uint256"
        }
      ],
      "stateMutability": "view",
      "type": "function",
      "constant": true
    },
    {
      "inputs": [
        {
          "internalType": "address",
          "name": "",
          "type": "address"
        }
      ],
      "name": "EscaperoomAdmins",
      "outputs": [
        {
          "internalType": "uint256",
          "name": "",
          "type": "uint256"
        }
      ],
      "stateMutability": "view",
      "type": "function",
      "constant": true
    },
    {
      "inputs": [
        {
          "internalType": "uint256",
          "name": "",
          "type": "uint256"
        }
      ],
      "name": "Escaperooms",
      "outputs": [
        {
          "internalType": "uint256",
          "name": "_Id",
          "type": "uint256"
        },
        {
          "internalType": "string",
          "name": "_Name",
          "type": "string"
        },
        {
          "internalType": "address",
          "name": "_Admin",
          "type": "address"
        },
        {
          "internalType": "uint256",
          "name": "_TotalCollectables",
          "type": "uint256"
        },
        {
          "internalType": "bool",
          "name": "_enabled",
          "type": "bool"
        }
      ],
      "stateMutability": "view",
      "type": "function",
      "constant": true
    },
    {
      "inputs": [],
      "name": "MINTER_ROLE",
      "outputs": [
        {
          "internalType": "bytes32",
          "name": "",
          "type": "bytes32"
        }
      ],
      "stateMutability": "view",
      "type": "function",
      "constant": true
    },
    {
      "inputs": [],
      "name": "PAUSER_ROLE",
      "outputs": [
        {
          "internalType": "bytes32",
          "name": "",
          "type": "bytes32"
        }
      ],
      "stateMutability": "view",
      "type": "function",
      "constant": true
    },
    {
      "inputs": [],
      "name": "PricePerCollectable",
      "outputs": [
        {
          "internalType": "uint256",
          "name": "",
          "type": "uint256"
        }
      ],
      "stateMutability": "view",
      "type": "function",
      "constant": true
    },
    {
      "inputs": [
        {
          "internalType": "address",
          "name": "account",
          "type": "address"
        },
        {
          "internalType": "uint256",
          "name": "id",
          "type": "uint256"
        }
      ],
      "name": "balanceOf",
      "outputs": [
        {
          "internalType": "uint256",
          "name": "",
          "type": "uint256"
        }
      ],
      "stateMutability": "view",
      "type": "function",
      "constant": true
    },
    {
      "inputs": [
        {
          "internalType": "address[]",
          "name": "accounts",
          "type": "address[]"
        },
        {
          "internalType": "uint256[]",
          "name": "ids",
          "type": "uint256[]"
        }
      ],
      "name": "balanceOfBatch",
      "outputs": [
        {
          "internalType": "uint256[]",
          "name": "",
          "type": "uint256[]"
        }
      ],
      "stateMutability": "view",
      "type": "function",
      "constant": true
    },
    {
      "inputs": [
        {
          "internalType": "address",
          "name": "account",
          "type": "address"
        },
        {
          "internalType": "uint256",
          "name": "id",
          "type": "uint256"
        },
        {
          "internalType": "uint256",
          "name": "value",
          "type": "uint256"
        }
      ],
      "name": "burn",
      "outputs": [],
      "stateMutability": "nonpayable",
      "type": "function"
    },
    {
      "inputs": [
        {
          "internalType": "address",
          "name": "account",
          "type": "address"
        },
        {
          "internalType": "uint256[]",
          "name": "ids",
          "type": "uint256[]"
        },
        {
          "internalType": "uint256[]",
          "name": "values",
          "type": "uint256[]"
        }
      ],
      "name": "burnBatch",
      "outputs": [],
      "stateMutability": "nonpayable",
      "type": "function"
    },
    {
      "inputs": [
        {
          "internalType": "bytes32",
          "name": "role",
          "type": "bytes32"
        }
      ],
      "name": "getRoleAdmin",
      "outputs": [
        {
          "internalType": "bytes32",
          "name": "",
          "type": "bytes32"
        }
      ],
      "stateMutability": "view",
      "type": "function",
      "constant": true
    },
    {
      "inputs": [
        {
          "internalType": "bytes32",
          "name": "role",
          "type": "bytes32"
        },
        {
          "internalType": "uint256",
          "name": "index",
          "type": "uint256"
        }
      ],
      "name": "getRoleMember",
      "outputs": [
        {
          "internalType": "address",
          "name": "",
          "type": "address"
        }
      ],
      "stateMutability": "view",
      "type": "function",
      "constant": true
    },
    {
      "inputs": [
        {
          "internalType": "bytes32",
          "name": "role",
          "type": "bytes32"
        }
      ],
      "name": "getRoleMemberCount",
      "outputs": [
        {
          "internalType": "uint256",
          "name": "",
          "type": "uint256"
        }
      ],
      "stateMutability": "view",
      "type": "function",
      "constant": true
    },
    {
      "inputs": [
        {
          "internalType": "bytes32",
          "name": "role",
          "type": "bytes32"
        },
        {
          "internalType": "address",
          "name": "account",
          "type": "address"
        }
      ],
      "name": "grantRole",
      "outputs": [],
      "stateMutability": "nonpayable",
      "type": "function"
    },
    {
      "inputs": [
        {
          "internalType": "bytes32",
          "name": "role",
          "type": "bytes32"
        },
        {
          "internalType": "address",
          "name": "account",
          "type": "address"
        }
      ],
      "name": "hasRole",
      "outputs": [
        {
          "internalType": "bool",
          "name": "",
          "type": "bool"
        }
      ],
      "stateMutability": "view",
      "type": "function",
      "constant": true
    },
    {
      "inputs": [
        {
          "internalType": "address",
          "name": "account",
          "type": "address"
        },
        {
          "internalType": "address",
          "name": "operator",
          "type": "address"
        }
      ],
      "name": "isApprovedForAll",
      "outputs": [
        {
          "internalType": "bool",
          "name": "",
          "type": "bool"
        }
      ],
      "stateMutability": "view",
      "type": "function",
      "constant": true
    },
    {
      "inputs": [
        {
          "internalType": "address",
          "name": "to",
          "type": "address"
        },
        {
          "internalType": "uint256[]",
          "name": "ids",
          "type": "uint256[]"
        },
        {
          "internalType": "uint256[]",
          "name": "amounts",
          "type": "uint256[]"
        },
        {
          "internalType": "bytes",
          "name": "data",
          "type": "bytes"
        }
      ],
      "name": "mintBatch",
      "outputs": [],
      "stateMutability": "nonpayable",
      "type": "function"
    },
    {
      "inputs": [],
      "name": "pause",
      "outputs": [],
      "stateMutability": "nonpayable",
      "type": "function"
    },
    {
      "inputs": [],
      "name": "paused",
      "outputs": [
        {
          "internalType": "bool",
          "name": "",
          "type": "bool"
        }
      ],
      "stateMutability": "view",
      "type": "function",
      "constant": true
    },
    {
      "inputs": [
        {
          "internalType": "bytes32",
          "name": "role",
          "type": "bytes32"
        },
        {
          "internalType": "address",
          "name": "account",
          "type": "address"
        }
      ],
      "name": "renounceRole",
      "outputs": [],
      "stateMutability": "nonpayable",
      "type": "function"
    },
    {
      "inputs": [
        {
          "internalType": "bytes32",
          "name": "role",
          "type": "bytes32"
        },
        {
          "internalType": "address",
          "name": "account",
          "type": "address"
        }
      ],
      "name": "revokeRole",
      "outputs": [],
      "stateMutability": "nonpayable",
      "type": "function"
    },
    {
      "inputs": [
        {
          "internalType": "address",
          "name": "from",
          "type": "address"
        },
        {
          "internalType": "address",
          "name": "to",
          "type": "address"
        },
        {
          "internalType": "uint256[]",
          "name": "ids",
          "type": "uint256[]"
        },
        {
          "internalType": "uint256[]",
          "name": "amounts",
          "type": "uint256[]"
        },
        {
          "internalType": "bytes",
          "name": "data",
          "type": "bytes"
        }
      ],
      "name": "safeBatchTransferFrom",
      "outputs": [],
      "stateMutability": "nonpayable",
      "type": "function"
    },
    {
      "inputs": [
        {
          "internalType": "address",
          "name": "from",
          "type": "address"
        },
        {
          "internalType": "address",
          "name": "to",
          "type": "address"
        },
        {
          "internalType": "uint256",
          "name": "id",
          "type": "uint256"
        },
        {
          "internalType": "uint256",
          "name": "amount",
          "type": "uint256"
        },
        {
          "internalType": "bytes",
          "name": "data",
          "type": "bytes"
        }
      ],
      "name": "safeTransferFrom",
      "outputs": [],
      "stateMutability": "nonpayable",
      "type": "function"
    },
    {
      "inputs": [
        {
          "internalType": "address",
          "name": "operator",
          "type": "address"
        },
        {
          "internalType": "bool",
          "name": "approved",
          "type": "bool"
        }
      ],
      "name": "setApprovalForAll",
      "outputs": [],
      "stateMutability": "nonpayable",
      "type": "function"
    },
    {
      "inputs": [
        {
          "internalType": "bytes4",
          "name": "interfaceId",
          "type": "bytes4"
        }
      ],
      "name": "supportsInterface",
      "outputs": [
        {
          "internalType": "bool",
          "name": "",
          "type": "bool"
        }
      ],
      "stateMutability": "view",
      "type": "function",
      "constant": true
    },
    {
      "inputs": [],
      "name": "unpause",
      "outputs": [],
      "stateMutability": "nonpayable",
      "type": "function"
    },
    {
      "inputs": [
        {
          "internalType": "uint256",
          "name": "",
          "type": "uint256"
        }
      ],
      "name": "uri",
      "outputs": [
        {
          "internalType": "string",
          "name": "",
          "type": "string"
        }
      ],
      "stateMutability": "view",
      "type": "function",
      "constant": true
    },
    {
      "inputs": [
        {
          "internalType": "address",
          "name": "_EscaperoomAdmin",
          "type": "address"
        },
        {
          "internalType": "string",
          "name": "_Name",
          "type": "string"
        },
        {
          "internalType": "uint256",
          "name": "_FreeCollectables",
          "type": "uint256"
        }
      ],
      "name": "createNewEscaperoom",
      "outputs": [],
      "stateMutability": "nonpayable",
      "type": "function"
    },
    {
      "inputs": [
        {
          "internalType": "uint256",
          "name": "_id",
          "type": "uint256"
        },
        {
          "internalType": "address",
          "name": "_visitor",
          "type": "address"
        }
      ],
      "name": "rewardVisitor",
      "outputs": [],
      "stateMutability": "nonpayable",
      "type": "function"
    },
    {
      "inputs": [
        {
          "internalType": "uint256",
          "name": "_id",
          "type": "uint256"
        },
        {
          "internalType": "address[]",
          "name": "_visitors",
          "type": "address[]"
        }
      ],
      "name": "rewardVisitorBatch",
      "outputs": [],
      "stateMutability": "nonpayable",
      "type": "function"
    },
    {
      "inputs": [
        {
          "internalType": "uint256",
          "name": "_id",
          "type": "uint256"
        },
        {
          "internalType": "uint256",
          "name": "_Amount",
          "type": "uint256"
        }
      ],
      "name": "mint",
      "outputs": [],
      "stateMutability": "payable",
      "type": "function",
      "payable": true
    },
    {
      "inputs": [
        {
          "internalType": "address",
          "name": "to",
          "type": "address"
        },
        {
          "internalType": "uint256",
          "name": "id",
          "type": "uint256"
        },
        {
          "internalType": "uint256",
          "name": "amount",
          "type": "uint256"
        },
        {
          "internalType": "bytes",
          "name": "data",
          "type": "bytes"
        }
      ],
      "name": "mint",
      "outputs": [],
      "stateMutability": "nonpayable",
      "type": "function"
    },
    {
      "inputs": [
        {
          "internalType": "uint256",
          "name": "_id",
          "type": "uint256"
        },
        {
          "internalType": "uint256",
          "name": "_Amount",
          "type": "uint256"
        }
      ],
      "name": "mintAdmin",
      "outputs": [],
      "stateMutability": "nonpayable",
      "type": "function"
    },
    {
      "inputs": [
        {
          "internalType": "uint256",
          "name": "_newPricePerCollectable",
          "type": "uint256"
        }
      ],
      "name": "setPricePerCollectable",
      "outputs": [],
      "stateMutability": "nonpayable",
      "type": "function"
    }
  ],
  "bytecode": "0x6080604052600060065560006007553480156200001b57600080fd5b506040518060600160405280603881526020016200433b60389139806200006b7f01ffc9a700000000000000000000000000000000000000000000000000000000640100000000620001b5810204565b6200007f8164010000000062000287810204565b620000b37fd9b67a2600000000000000000000000000000000000000000000000000000000640100000000620001b5810204565b620000e77f0e89341c00000000000000000000000000000000000000000000000000000000640100000000620001b5810204565b506005805460ff191690556200011a60006200010b640100000000620002a0810204565b640100000000620002a5810204565b604080517f4d494e5445525f524f4c450000000000000000000000000000000000000000008152905190819003600b01902062000164906200010b640100000000620002a0810204565b604080517f5041555345525f524f4c450000000000000000000000000000000000000000008152905190819003600b019020620001ae906200010b640100000000620002a0810204565b506200047a565b7fffffffff0000000000000000000000000000000000000000000000000000000080821614156200024757604080517f08c379a000000000000000000000000000000000000000000000000000000000815260206004820152601c60248201527f4552433136353a20696e76616c696420696e7465726661636520696400000000604482015290519081900360640190fd5b7fffffffff00000000000000000000000000000000000000000000000000000000166000908152600160208190526040909120805460ff19169091179055565b80516200029c906004906020840190620003d8565b5050565b335b90565b6200029c8282640100000000620002ba810204565b6000828152602081905260409020620002e290826401000000006200371f6200033f82021704565b156200029c57620002fb640100000000620002a0810204565b600160a060020a031681600160a060020a0316837f2f8788117e7eff1d82e926ec794901d17c78024a50270940304540a733656f0d60405160405180910390a45050565b60006200035f83600160a060020a03841664010000000062000368810204565b90505b92915050565b60006200037f8383640100000000620003c0810204565b620003b75750815460018181018455600084815260208082209093018490558454848252828601909352604090209190915562000362565b50600062000362565b60009081526001919091016020526040902054151590565b828054600181600116156101000203166002900490600052602060002090601f016020900481019282601f106200041b57805160ff19168380011785556200044b565b828001600101855582156200044b579182015b828111156200044b5782518255916020019190600101906200042e565b50620004599291506200045d565b5090565b620002a291905b8082111562000459576000815560010162000464565b613eb1806200048a6000396000f3fe6080604052600436106102075760003560e060020a90048063731133e91161011c578063b6498859116100a4578063d547741f11610073578063d547741f14610fc8578063e63ab1e914611001578063e985e9c514611016578063f242432a14611051578063f5298aca1461112957610207565b8063b649885914610f44578063c47cbb1414610f74578063ca15c87314610f89578063d539139314610fb357610207565b806391d14854116100eb57806391d1485414610d22578063a217fddf14610d5b578063a22cb46514610d70578063a8a3b13d14610dab578063b30ca4d814610e7f57610207565b8063731133e914610bbf5780638456cb5914610c8e57806385aa4cde14610ca35780639010d07c14610cd657610207565b80632f2ff15d1161019f5780634e1273f41161016e5780634e1273f41461087f5780634e135adb14610a035780635c975abb14610a2d578063600c071814610a425780636b20c45414610a7b57610207565b80632f2ff15d146107e357806336568abe1461081c5780633f4ba83a146108555780634049ffca1461086a57610207565b80631b2ef1ca116101db5780631b2ef1ca146103f75780631f7fdffa1461041a578063248a9ca3146105e55780632eb2c2d61461060f57610207565b8062fdd58e1461020c57806301ffc9a7146102575780630841a43d1461029f5780630e89341c14610358575b600080fd5b34801561021857600080fd5b506102456004803603604081101561022f57600080fd5b50600160a060020a038135169060200135611168565b60408051918252519081900360200190f35b34801561026357600080fd5b5061028b6004803603602081101561027a57600080fd5b5035600160e060020a0319166111dd565b604080519115158252519081900360200190f35b3480156102ab57600080fd5b50610356600480360360408110156102c257600080fd5b813591908101906040810160208201356401000000008111156102e457600080fd5b8201836020820111156102f657600080fd5b8035906020019184602083028401116401000000008311171561031857600080fd5b9190808060200260200160405190810160405280939291908181526020018383602002808284376000920191909152509295506111fc945050505050565b005b34801561036457600080fd5b506103826004803603602081101561037b57600080fd5b5035611327565b6040805160208082528351818301528351919283929083019185019080838360005b838110156103bc5781810151838201526020016103a4565b50505050905090810190601f1680156103e95780820380516001836020036101000a031916815260200191505b509250505060405180910390f35b6103566004803603604081101561040d57600080fd5b50803590602001356113bf565b34801561042657600080fd5b506103566004803603608081101561043d57600080fd5b600160a060020a03823516919081019060408101602082013564010000000081111561046857600080fd5b82018360208201111561047a57600080fd5b8035906020019184602083028401116401000000008311171561049c57600080fd5b91908080602002602001604051908101604052809392919081815260200183836020028082843760009201919091525092959493602081019350359150506401000000008111156104ec57600080fd5b8201836020820111156104fe57600080fd5b8035906020019184602083028401116401000000008311171561052057600080fd5b919080806020026020016040519081016040528093929190818152602001838360200280828437600092019190915250929594936020810193503591505064010000000081111561057057600080fd5b82018360208201111561058257600080fd5b803590602001918460018302840111640100000000831117156105a457600080fd5b91908080601f016020809104026020016040519081016040528093929190818152602001838380828437600092019190915250929550611519945050505050565b3480156105f157600080fd5b506102456004803603602081101561060857600080fd5b50356115ac565b34801561061b57600080fd5b50610356600480360360a081101561063257600080fd5b600160a060020a03823581169260208101359091169181019060608101604082013564010000000081111561066657600080fd5b82018360208201111561067857600080fd5b8035906020019184602083028401116401000000008311171561069a57600080fd5b91908080602002602001604051908101604052809392919081815260200183836020028082843760009201919091525092959493602081019350359150506401000000008111156106ea57600080fd5b8201836020820111156106fc57600080fd5b8035906020019184602083028401116401000000008311171561071e57600080fd5b919080806020026020016040519081016040528093929190818152602001838360200280828437600092019190915250929594936020810193503591505064010000000081111561076e57600080fd5b82018360208201111561078057600080fd5b803590602001918460018302840111640100000000831117156107a257600080fd5b91908080601f0160208091040260200160405190810160405280939291908181526020018383808284376000920191909152509295506115c1945050505050565b3480156107ef57600080fd5b506103566004803603604081101561080657600080fd5b5080359060200135600160a060020a03166118cd565b34801561082857600080fd5b506103566004803603604081101561083f57600080fd5b5080359060200135600160a060020a0316611937565b34801561086157600080fd5b5061035661199b565b34801561087657600080fd5b50610245611a21565b34801561088b57600080fd5b506109b3600480360360408110156108a257600080fd5b8101906020810181356401000000008111156108bd57600080fd5b8201836020820111156108cf57600080fd5b803590602001918460208302840111640100000000831117156108f157600080fd5b919080806020026020016040519081016040528093929190818152602001838360200280828437600092019190915250929594936020810193503591505064010000000081111561094157600080fd5b82018360208201111561095357600080fd5b8035906020019184602083028401116401000000008311171561097557600080fd5b919080806020026020016040519081016040528093929190818152602001838360200280828437600092019190915250929550611a27945050505050565b60408051602080825283518183015283519192839290830191858101910280838360005b838110156109ef5781810151838201526020016109d7565b505050509050019250505060405180910390f35b348015610a0f57600080fd5b5061035660048036036020811015610a2657600080fd5b5035611b94565b348015610a3957600080fd5b5061028b611c20565b348015610a4e57600080fd5b5061035660048036036040811015610a6557600080fd5b5080359060200135600160a060020a0316611c2a565b348015610a8757600080fd5b5061035660048036036060811015610a9e57600080fd5b600160a060020a038235169190810190604081016020820135640100000000811115610ac957600080fd5b820183602082011115610adb57600080fd5b80359060200191846020830284011164010000000083111715610afd57600080fd5b9190808060200260200160405190810160405280939291908181526020018383602002808284376000920191909152509295949360208101935035915050640100000000811115610b4d57600080fd5b820183602082011115610b5f57600080fd5b80359060200191846020830284011164010000000083111715610b8157600080fd5b919080806020026020016040519081016040528093929190818152602001838360200280828437600092019190915250929550611d40945050505050565b348015610bcb57600080fd5b5061035660048036036080811015610be257600080fd5b600160a060020a038235169160208101359160408201359190810190608081016060820135640100000000811115610c1957600080fd5b820183602082011115610c2b57600080fd5b80359060200191846001830284011164010000000083111715610c4d57600080fd5b91908080601f016020809104026020016040519081016040528093929190818152602001838380828437600092019190915250929550611db7945050505050565b348015610c9a57600080fd5b50610356611e3f565b348015610caf57600080fd5b5061024560048036036020811015610cc657600080fd5b5035600160a060020a0316611ec3565b348015610ce257600080fd5b50610d0660048036036040811015610cf957600080fd5b5080359060200135611ed5565b60408051600160a060020a039092168252519081900360200190f35b348015610d2e57600080fd5b5061028b60048036036040811015610d4557600080fd5b5080359060200135600160a060020a0316611efa565b348015610d6757600080fd5b50610245611f18565b348015610d7c57600080fd5b5061035660048036036040811015610d9357600080fd5b50600160a060020a0381351690602001351515611f1d565b348015610db757600080fd5b50610dd560048036036020811015610dce57600080fd5b503561200f565b604051808681526020018060200185600160a060020a0316600160a060020a0316815260200184815260200183151515158152602001828103825286818151815260200191508051906020019080838360005b83811015610e40578181015183820152602001610e28565b50505050905090810190601f168015610e6d5780820380516001836020036101000a031916815260200191505b50965050505050505060405180910390f35b348015610e8b57600080fd5b5061035660048036036060811015610ea257600080fd5b600160a060020a038235169190810190604081016020820135640100000000811115610ecd57600080fd5b820183602082011115610edf57600080fd5b80359060200191846001830284011164010000000083111715610f0157600080fd5b91908080601f01602080910402602001604051908101604052809392919081815260200183838082843760009201919091525092955050913592506120d7915050565b348015610f5057600080fd5b5061035660048036036040811015610f6757600080fd5b5080359060200135612300565b348015610f8057600080fd5b506102456123a6565b348015610f9557600080fd5b5061024560048036036020811015610fac57600080fd5b50356123ac565b348015610fbf57600080fd5b506102456123c3565b348015610fd457600080fd5b5061035660048036036040811015610feb57600080fd5b5080359060200135600160a060020a03166123f8565b34801561100d57600080fd5b50610245612454565b34801561102257600080fd5b5061028b6004803603604081101561103957600080fd5b50600160a060020a0381358116916020013516612489565b34801561105d57600080fd5b50610356600480360360a081101561107457600080fd5b600160a060020a03823581169260208101359091169160408201359160608101359181019060a0810160808201356401000000008111156110b457600080fd5b8201836020820111156110c657600080fd5b803590602001918460018302840111640100000000831117156110e857600080fd5b91908080601f0160208091040260200160405190810160405280939291908181526020018383808284376000920191909152509295506124b7945050505050565b34801561113557600080fd5b506103566004803603606081101561114c57600080fd5b50600160a060020a03813516906020810135906040013561268e565b6000600160a060020a0383166111b25760405160e560020a62461bcd02815260040180806020018281038252602b815260200180613a5c602b913960400191505060405180910390fd5b506000818152600260209081526040808320600160a060020a03861684529091529020545b92915050565b600160e060020a03191660009081526001602052604090205460ff1690565b33600090815260096020526040902054821461124c5760405160e560020a62461bcd02815260040180806020018281038252602e815260200180613c9d602e913960400191505060405180910390fd5b60005b81518110156113225761127582828151811061126757fe5b602002602001015184611168565b61131a576112cf3383838151811061128957fe5b60200260200101518560016040518060400160405280600281526020017f30780000000000000000000000000000000000000000000000000000000000008152506124b7565b828282815181106112dc57fe5b6020026020010151600160a060020a03167f08dcc1ac80d12aee46948ffde43bee0bba6bfc44fdcf14b55ba8cee9249213f560405160405180910390a35b60010161124f565b505050565b60048054604080516020601f60026000196101006001881615020190951694909404938401819004810282018101909252828152606093909290918301828280156113b35780601f10611388576101008083540402835291602001916113b3565b820191906000526020600020905b81548152906001019060200180831161139657829003601f168201915b50505050509050919050565b33600090815260096020526040902054821461140f5760405160e560020a62461bcd02815260040180806020018281038252602e815260200180613c9d602e913960400191505060405180910390fd5b60008111611467576040805160e560020a62461bcd02815260206004820152601a60248201527f4552524f523a205f416d6f756e74206d757374206265203e2030000000000000604482015290519081900360640190fd5b600754810234146114c2576040805160e560020a62461bcd02815260206004820152601f60248201527f4552524f523a20546f6f206d7563682f6c6573732065746865722073656e7400604482015290519081900360640190fd5b6000828152600860209081526040808320600201548151928301909152918152600160a060020a03909116906114fd90829085908590612705565b5060009182526008602052604090912060030180549091019055565b604080517f4d494e5445525f524f4c450000000000000000000000000000000000000000008152905190819003600b01902061155c90611557612816565b611efa565b61159a5760405160e560020a62461bcd028152600401808060200182810382526038815260200180613bff6038913960400191505060405180910390fd5b6115a68484848461281a565b50505050565b60009081526020819052604090206002015490565b81518351146116045760405160e560020a62461bcd028152600401808060200182810382526028815260200180613e046028913960400191505060405180910390fd5b600160a060020a03841661164c5760405160e560020a62461bcd028152600401808060200182810382526025815260200180613b856025913960400191505060405180910390fd5b611654612816565b600160a060020a031685600160a060020a0316148061167f575061167f8561167a612816565b612489565b6116bd5760405160e560020a62461bcd028152600401808060200182810382526032815260200180613baa6032913960400191505060405180910390fd5b60006116c7612816565b90506116d7818787878787612a6e565b60005b84518110156117dd5760008582815181106116f157fe5b60200260200101519050600085838151811061170957fe5b60200260200101519050611776816040518060600160405280602a8152602001613c37602a91396002600086815260200190815260200160002060008d600160a060020a0316600160a060020a0316815260200190815260200160002054612a7c9092919063ffffffff16565b6000838152600260209081526040808320600160a060020a038e811685529252808320939093558a16815220546117ad9082612b16565b6000928352600260209081526040808520600160a060020a038c16865290915290922091909155506001016116da565b5084600160a060020a031686600160a060020a031682600160a060020a03167f4a39dc06d4c0dbc64b70af90fd698a233a518aa5d07e595d983b8c0526c8f7fb8787604051808060200180602001838103835285818151815260200191508051906020019060200280838360005b8381101561186357818101518382015260200161184b565b50505050905001838103825284818151815260200191508051906020019060200280838360005b838110156118a257818101518382015260200161188a565b5050505090500194505050505060405180910390a46118c5818787878787612b73565b505050505050565b6000828152602081905260409020600201546118eb90611557612816565b6119295760405160e560020a62461bcd02815260040180806020018281038252602f815260200180613a2d602f913960400191505060405180910390fd5b6119338282612ed9565b5050565b61193f612816565b600160a060020a031681600160a060020a0316146119915760405160e560020a62461bcd02815260040180806020018281038252602f815260200180613e4d602f913960400191505060405180910390fd5b6119338282612f48565b604080517f5041555345525f524f4c450000000000000000000000000000000000000000008152905190819003600b0190206119d990611557612816565b611a175760405160e560020a62461bcd02815260040180806020018281038252603b815260200180613d1b603b913960400191505060405180910390fd5b611a1f612fb7565b565b60065481565b60608151835114611a6c5760405160e560020a62461bcd028152600401808060200182810382526029815260200180613ddb6029913960400191505060405180910390fd5b60608351604051908082528060200260200182016040528015611a99578160200160208202803883390190505b50905060005b8451811015611b8c576000600160a060020a0316858281518110611abf57fe5b6020026020010151600160a060020a03161415611b105760405160e560020a62461bcd028152600401808060200182810382526031815260200180613a876031913960400191505060405180910390fd5b60026000858381518110611b2057fe5b602002602001015181526020019081526020016000206000868381518110611b4457fe5b6020026020010151600160a060020a0316600160a060020a0316815260200190815260200160002054828281518110611b7957fe5b6020908102919091010152600101611a9f565b509392505050565b611b9f600033611efa565b1515600114611be25760405160e560020a62461bcd02815260040180806020018281038252603c815260200180613c61603c913960400191505060405180910390fd5b600781905560408051828152905133917f6d55988fd84c3eae3398916f51ca9d47bf4e053e5a444b72ee7583fc0143ebc3919081900360200190a250565b60055460ff165b90565b336000908152600960205260409020548214611c7a5760405160e560020a62461bcd02815260040180806020018281038252602e815260200180613c9d602e913960400191505060405180910390fd5b611c848183611168565b15611cc35760405160e560020a62461bcd028152600401808060200182810382526023815260200180613d8f6023913960400191505060405180910390fd5b611d0633828460016040518060400160405280600281526020017f30780000000000000000000000000000000000000000000000000000000000008152506124b7565b6040518290600160a060020a038316907f08dcc1ac80d12aee46948ffde43bee0bba6bfc44fdcf14b55ba8cee9249213f590600090a35050565b611d48612816565b600160a060020a031683600160a060020a03161480611d6e5750611d6e8361167a612816565b611dac5760405160e560020a62461bcd028152600401808060200182810382526029815260200180613b086029913960400191505060405180910390fd5b611322838383613061565b604080517f4d494e5445525f524f4c450000000000000000000000000000000000000000008152905190819003600b019020611df590611557612816565b611e335760405160e560020a62461bcd028152600401808060200182810382526038815260200180613bff6038913960400191505060405180910390fd5b6115a684848484612705565b604080517f5041555345525f524f4c450000000000000000000000000000000000000000008152905190819003600b019020611e7d90611557612816565b611ebb5760405160e560020a62461bcd028152600401808060200182810382526039815260200180613d566039913960400191505060405180910390fd5b611a1f6132d5565b60096020526000908152604090205481565b6000828152602081905260408120611ef3908363ffffffff61336616565b9392505050565b6000828152602081905260408120611ef3908363ffffffff61337216565b600081565b81600160a060020a0316611f2f612816565b600160a060020a03161415611f785760405160e560020a62461bcd028152600401808060200182810382526029815260200180613db26029913960400191505060405180910390fd5b8060036000611f85612816565b600160a060020a03908116825260208083019390935260409182016000908120918716808252919093529120805460ff191692151592909217909155611fc9612816565b6040805184151581529051600160a060020a0392909216917f17307eab39ab6107e8899845ad3d59bd9653f200f220920489ca2b5937696c319181900360200190a35050565b6008602090815260009182526040918290208054600180830180548651600293821615610100026000190190911692909204601f8101869004860283018601909652858252919492939092908301828280156120ac5780601f10612081576101008083540402835291602001916120ac565b820191906000526020600020905b81548152906001019060200180831161208f57829003601f168201915b50505050600283015460038401546004909401549293600160a060020a039091169290915060ff1685565b6120e2600033611efa565b15156001146121255760405160e560020a62461bcd02815260040180806020018281038252603c815260200180613c61603c913960400191505060405180910390fd5b600081116121675760405160e560020a62461bcd028152600401808060200182810382526024815260200180613b316024913960400191505060405180910390fd5b600160a060020a0383166121af5760405160e560020a62461bcd028152600401808060200182810382526022815260200180613ccb6022913960400191505060405180910390fd5b600160a060020a038316600090815260096020526040902054156122075760405160e560020a62461bcd02815260040180806020018281038252602e815260200180613ced602e913960400191505060405180910390fd5b6006805460010190819055600160a060020a0384166000908152600960205260409020556122336138dc565b6006548082526020808301858152600160a060020a038716604080860191909152606085018690526001608086018190526000948552600884529320845181559051805185949293612289938501920190613916565b5060408281015160028301805473ffffffffffffffffffffffffffffffffffffffff1916600160a060020a03909216919091179055606083015160038301556080909201516004909101805460ff1916911515919091179055600654815160208101909252600082526115a6918691908590612705565b61230b600033611efa565b151560011461234e5760405160e560020a62461bcd02815260040180806020018281038252603c815260200180613c61603c913960400191505060405180910390fd5b600081116114c2576040805160e560020a62461bcd02815260206004820152601a60248201527f4552524f523a205f416d6f756e74206d757374206265203e2030000000000000604482015290519081900360640190fd5b60075481565b60008181526020819052604081206111d790613387565b604080517f4d494e5445525f524f4c450000000000000000000000000000000000000000008152905190819003600b01902081565b60008281526020819052604090206002015461241690611557612816565b6119915760405160e560020a62461bcd028152600401808060200182810382526030815260200180613b556030913960400191505060405180910390fd5b604080517f5041555345525f524f4c450000000000000000000000000000000000000000008152905190819003600b01902081565b600160a060020a03918216600090815260036020908152604080832093909416825291909152205460ff1690565b600160a060020a0384166124ff5760405160e560020a62461bcd028152600401808060200182810382526025815260200180613b856025913960400191505060405180910390fd5b612507612816565b600160a060020a031685600160a060020a0316148061252d575061252d8561167a612816565b61256b5760405160e560020a62461bcd028152600401808060200182810382526029815260200180613b086029913960400191505060405180910390fd5b6000612575612816565b905061259581878761258688613392565b61258f88613392565b87612a6e565b6125e2836040518060600160405280602a8152602001613c37602a91396000878152600260209081526040808320600160a060020a038d168452909152902054919063ffffffff612a7c16565b6000858152600260209081526040808320600160a060020a038b811685529252808320939093558716815220546126199084612b16565b6000858152600260209081526040808320600160a060020a03808b168086529184529382902094909455805188815291820187905280518a8416938616927fc3d58168c5ae7397731d063d5bbf3d657854427343f4c083240f7aacaa2d0f6292908290030190a46118c58187878787876133d6565b612696612816565b600160a060020a031683600160a060020a031614806126bc57506126bc8361167a612816565b6126fa5760405160e560020a62461bcd028152600401808060200182810382526029815260200180613b086029913960400191505060405180910390fd5b611322838383613588565b600160a060020a03841661274d5760405160e560020a62461bcd028152600401808060200182810382526021815260200180613e2c6021913960400191505060405180910390fd5b6000612757612816565b90506127698160008761258688613392565b6000848152600260209081526040808320600160a060020a038916845290915290205461279c908463ffffffff612b1616565b6000858152600260209081526040808320600160a060020a03808b16808652918452828520959095558151898152928301889052815190948616927fc3d58168c5ae7397731d063d5bbf3d657854427343f4c083240f7aacaa2d0f6292908290030190a461280f816000878787876133d6565b5050505050565b3390565b600160a060020a0384166128625760405160e560020a62461bcd028152600401808060200182810382526021815260200180613e2c6021913960400191505060405180910390fd5b81518351146128a55760405160e560020a62461bcd028152600401808060200182810382526028815260200180613e046028913960400191505060405180910390fd5b60006128af612816565b90506128c081600087878787612a6e565b60005b84518110156129845761293b600260008784815181106128df57fe5b60200260200101518152602001908152602001600020600088600160a060020a0316600160a060020a031681526020019081526020016000205485838151811061292557fe5b6020026020010151612b1690919063ffffffff16565b6002600087848151811061294b57fe5b60209081029190910181015182528181019290925260409081016000908120600160a060020a038b1682529092529020556001016128c3565b5084600160a060020a03166000600160a060020a031682600160a060020a03167f4a39dc06d4c0dbc64b70af90fd698a233a518aa5d07e595d983b8c0526c8f7fb8787604051808060200180602001838103835285818151815260200191508051906020019060200280838360005b83811015612a0b5781810151838201526020016129f3565b50505050905001838103825284818151815260200191508051906020019060200280838360005b83811015612a4a578181015183820152602001612a32565b5050505090500194505050505060405180910390a461280f81600087878787612b73565b6118c58686868686866136c4565b60008184841115612b0e5760405160e560020a62461bcd0281526004018080602001828103825283818151815260200191508051906020019080838360005b83811015612ad3578181015183820152602001612abb565b50505050905090810190601f168015612b005780820380516001836020036101000a031916815260200191505b509250505060405180910390fd5b505050900390565b600082820183811015611ef3576040805160e560020a62461bcd02815260206004820152601b60248201527f536166654d6174683a206164646974696f6e206f766572666c6f770000000000604482015290519081900360640190fd5b612b8584600160a060020a0316613719565b156118c55783600160a060020a031663bc197c8187878686866040518663ffffffff1660e060020a0281526004018086600160a060020a0316600160a060020a0316815260200185600160a060020a0316600160a060020a03168152602001806020018060200180602001848103845287818151815260200191508051906020019060200280838360005b83811015612c28578181015183820152602001612c10565b50505050905001848103835286818151815260200191508051906020019060200280838360005b83811015612c67578181015183820152602001612c4f565b50505050905001848103825285818151815260200191508051906020019080838360005b83811015612ca3578181015183820152602001612c8b565b50505050905090810190601f168015612cd05780820380516001836020036101000a031916815260200191505b5098505050505050505050602060405180830381600087803b158015612cf557600080fd5b505af1925050508015612d1a57506040513d6020811015612d1557600080fd5b505160015b612e65576040516000815260443d1015612d3657506000612dd6565b60046000803e60e060020a600051046308c379a08114612d5a576000915050612dd6565b60043d036004833e81513d602482011167ffffffffffffffff82111715612d8657600092505050612dd6565b808301805167ffffffffffffffff811115612da8576000945050505050612dd6565b8060208301013d8601811115612dc657600095505050505050612dd6565b601f01601f191660405250925050505b80612de15750612e2b565b60405160e560020a62461bcd028152602060048201818152835160248401528351849391928392604401919085019080838360008315612ad3578181015183820152602001612abb565b60405160e560020a62461bcd0281526004018080602001828103825260348152602001806139af6034913960400191505060405180910390fd5b600160e060020a031981167fbc197c810000000000000000000000000000000000000000000000000000000014612ed05760405160e560020a62461bcd028152600401808060200182810382526028815260200180613a056028913960400191505060405180910390fd5b50505050505050565b6000828152602081905260409020612ef7908263ffffffff61371f16565b1561193357612f04612816565b600160a060020a031681600160a060020a0316837f2f8788117e7eff1d82e926ec794901d17c78024a50270940304540a733656f0d60405160405180910390a45050565b6000828152602081905260409020612f66908263ffffffff61373416565b1561193357612f73612816565b600160a060020a031681600160a060020a0316837ff6391f5c32d9c69d2a47ea670b442974b53935d1edc7fd64eb21e047a839171b60405160405180910390a45050565b60055460ff16613011576040805160e560020a62461bcd02815260206004820152601460248201527f5061757361626c653a206e6f7420706175736564000000000000000000000000604482015290519081900360640190fd5b6005805460ff191690557f5db9ee0a495bf2e6ff9c91a7834c1ba4fdd244a5e8aa4e537bd38aeae4b073aa613044612816565b60408051600160a060020a039092168252519081900360200190a1565b600160a060020a0383166130a95760405160e560020a62461bcd028152600401808060200182810382526023815260200180613bdc6023913960400191505060405180910390fd5b80518251146130ec5760405160e560020a62461bcd028152600401808060200182810382526028815260200180613e046028913960400191505060405180910390fd5b60006130f6612816565b905061311681856000868660405180602001604052806000815250612a6e565b60005b83518110156131f4576131ab83828151811061313157fe5b6020026020010151604051806060016040528060248152602001613ab8602491396002600088868151811061316257fe5b60200260200101518152602001908152602001600020600089600160a060020a0316600160a060020a0316815260200190815260200160002054612a7c9092919063ffffffff16565b600260008684815181106131bb57fe5b60209081029190910181015182528181019290925260409081016000908120600160a060020a038a168252909252902055600101613119565b506000600160a060020a031684600160a060020a031682600160a060020a03167f4a39dc06d4c0dbc64b70af90fd698a233a518aa5d07e595d983b8c0526c8f7fb8686604051808060200180602001838103835285818151815260200191508051906020019060200280838360005b8381101561327b578181015183820152602001613263565b50505050905001838103825284818151815260200191508051906020019060200280838360005b838110156132ba5781810151838201526020016132a2565b5050505090500194505050505060405180910390a450505050565b60055460ff1615613330576040805160e560020a62461bcd02815260206004820152601060248201527f5061757361626c653a2070617573656400000000000000000000000000000000604482015290519081900360640190fd5b6005805460ff191660011790557f62e78cea01bee320cd4e420270b5ea74000d11b0c9f74754ebdbfc544b05a258613044612816565b6000611ef38383613749565b6000611ef383600160a060020a0384166137b0565b60006111d7826137c8565b6040805160018082528183019092526060918291906020808301908038833901905050905082816000815181106133c557fe5b602090810291909101015292915050565b6133e884600160a060020a0316613719565b156118c55783600160a060020a031663f23a6e6187878686866040518663ffffffff1660e060020a0281526004018086600160a060020a0316600160a060020a0316815260200185600160a060020a0316600160a060020a0316815260200184815260200183815260200180602001828103825283818151815260200191508051906020019080838360005b8381101561348c578181015183820152602001613474565b50505050905090810190601f1680156134b95780820380516001836020036101000a031916815260200191505b509650505050505050602060405180830381600087803b1580156134dc57600080fd5b505af192505050801561350157506040513d60208110156134fc57600080fd5b505160015b61351d576040516000815260443d1015612d3657506000612dd6565b600160e060020a031981167ff23a6e610000000000000000000000000000000000000000000000000000000014612ed05760405160e560020a62461bcd028152600401808060200182810382526028815260200180613a056028913960400191505060405180910390fd5b600160a060020a0383166135d05760405160e560020a62461bcd028152600401808060200182810382526023815260200180613bdc6023913960400191505060405180910390fd5b60006135da612816565b905061360a818560006135ec87613392565b6135f587613392565b60405180602001604052806000815250612a6e565b61365782604051806060016040528060248152602001613ab8602491396000868152600260209081526040808320600160a060020a038b168452909152902054919063ffffffff612a7c16565b6000848152600260209081526040808320600160a060020a03808a16808652918452828520959095558151888152928301879052815193949093908616927fc3d58168c5ae7397731d063d5bbf3d657854427343f4c083240f7aacaa2d0f6292908290030190a450505050565b6136d28686868686866118c5565b6136da611c20565b156118c55760405160e560020a62461bcd02815260040180806020018281038252602c815260200180613adc602c913960400191505060405180910390fd5b3b151590565b6000611ef383600160a060020a0384166137cc565b6000611ef383600160a060020a038416613816565b8154600090821061378e5760405160e560020a62461bcd0281526004018080602001828103825260228152602001806139e36022913960400191505060405180910390fd5b82600001828154811061379d57fe5b9060005260206000200154905092915050565b60009081526001919091016020526040902054151590565b5490565b60006137d883836137b0565b61380e575081546001818101845560008481526020808220909301849055845484825282860190935260409020919091556111d7565b5060006111d7565b600081815260018301602052604081205480156138d2578354600019808301919081019060009087908390811061384957fe5b906000526020600020015490508087600001848154811061386657fe5b60009182526020808320909101929092558281526001898101909252604090209084019055865487908061389657fe5b600190038181906000526020600020016000905590558660010160008781526020019081526020016000206000905560019450505050506111d7565b60009150506111d7565b6040518060a0016040528060008152602001606081526020016000600160a060020a03168152602001600081526020016000151581525090565b828054600181600116156101000203166002900490600052602060002090601f016020900481019282601f1061395757805160ff1916838001178555613984565b82800160010185558215613984579182015b82811115613984578251825591602001919060010190613969565b50613990929150613994565b5090565b611c2791905b80821115613990576000815560010161399a56fe455243313135353a207472616e7366657220746f206e6f6e2045524331313535526563656976657220696d706c656d656e746572456e756d657261626c655365743a20696e646578206f7574206f6620626f756e6473455243313135353a204552433131353552656365697665722072656a656374656420746f6b656e73416363657373436f6e74726f6c3a2073656e646572206d75737420626520616e2061646d696e20746f206772616e74455243313135353a2062616c616e636520717565727920666f7220746865207a65726f2061646472657373455243313135353a2062617463682062616c616e636520717565727920666f7220746865207a65726f2061646472657373455243313135353a206275726e20616d6f756e7420657863656564732062616c616e6365455243313135355061757361626c653a20746f6b656e207472616e73666572207768696c6520706175736564455243313135353a2063616c6c6572206973206e6f74206f776e6572206e6f7220617070726f7665644552524f523a20546f74616c436f6c6c65637461626c6573206d757374206265203e2030416363657373436f6e74726f6c3a2073656e646572206d75737420626520616e2061646d696e20746f207265766f6b65455243313135353a207472616e7366657220746f20746865207a65726f2061646472657373455243313135353a207472616e736665722063616c6c6572206973206e6f74206f776e6572206e6f7220617070726f766564455243313135353a206275726e2066726f6d20746865207a65726f2061646472657373455243313135355072657365744d696e7465725061757365723a206d7573742068617665206d696e74657220726f6c6520746f206d696e74455243313135353a20696e73756666696369656e742062616c616e636520666f72207472616e736665724552524f523a2043616c6c696e67206164647265737320646f6573206e6f7420686176652044454641554c545f41444d494e5f524f4c4520726f6c654552524f523a2055736572206973206e6f7420616e2061646d696e206f662074686520457363617065726f6f6d214552524f523a205f457363617065726f6f6d41646d696e20697320696e76616c69644552524f523a205573657220616c72656164792068617320616e2065736361706520726f6f6d206163636f756e74455243313135355072657365744d696e7465725061757365723a206d75737420686176652070617573657220726f6c6520746f20756e7061757365455243313135355072657365744d696e7465725061757365723a206d75737420686176652070617573657220726f6c6520746f2070617573654552524f523a20557365722068617320636f6c6c65637461626c6520616c7265616479455243313135353a2073657474696e6720617070726f76616c2073746174757320666f722073656c66455243313135353a206163636f756e747320616e6420696473206c656e677468206d69736d61746368455243313135353a2069647320616e6420616d6f756e7473206c656e677468206d69736d61746368455243313135353a206d696e7420746f20746865207a65726f2061646472657373416363657373436f6e74726f6c3a2063616e206f6e6c792072656e6f756e636520726f6c657320666f722073656c66a26469706673582212200ca82987c866bbdf0fd6480c508788a7be759401af5a31ef7a3707ba74eb1c3f64736f6c6343000602003368747470733a2f2f657263313135356d657461646174612e617a75726577656273697465732e6e65742f6170692f746f6b656e2f7b69647d",
  "source": "// SPDX-License-Identifier: MIT\r\npragma solidity ^0.6.0;\r\n\r\nimport \"@openzeppelin/contracts/presets/ERC1155PresetMinterPauser.sol\";\r\n\r\ncontract Collectables is ERC1155PresetMinterPauser {\r\n\r\n    // Struct for escaperooms\r\n    struct s_Escaperoom {\r\n        uint _Id;\r\n        string _Name;\r\n        address _Admin;\r\n        uint _TotalCollectables;\r\n        bool _enabled;\r\n    }\r\n\r\n    // Escaperoom counter\r\n    uint public EscapeRoomCounter = 0;\r\n\r\n    // Conversionprice GWei per Collectable\r\n    uint public PricePerCollectable = 0 wei;\r\n\r\n    // Mapping between _id and escaperoom\r\n    mapping(uint => s_Escaperoom) public Escaperooms;\r\n\r\n    // Mapping between address and the _id of the escaperoom\r\n    mapping(address => uint) public EscaperoomAdmins;\r\n\r\n    // Events\r\n    event visitorRewarded(address indexed _visitor, uint indexed _id);\r\n    event pricePerCollectableUpdated(address indexed _admin, uint _pricePerCollectable);\r\n\r\n    // Constructor\r\n    constructor() public ERC1155PresetMinterPauser(\"https://erc1155metadata.azurewebsites.net/api/token/{id}\") {\r\n        // No code yet!\r\n    }\r\n\r\n    // Function to create a new escaperoom\r\n    // Only for Admins of the contract\r\n    // Escaperoom Admin will receive all tokens\r\n    function createNewEscaperoom(address _EscaperoomAdmin, string memory _Name, uint _FreeCollectables) public {\r\n        require(hasRole(DEFAULT_ADMIN_ROLE,msg.sender) == true, \"ERROR: Calling address does not have DEFAULT_ADMIN_ROLE role\");\r\n        require(_FreeCollectables > 0, \"ERROR: TotalCollectables must be > 0\");\r\n        require(_EscaperoomAdmin != address(0), \"ERROR: _EscaperoomAdmin is invalid\");\r\n        require(EscaperoomAdmins[_EscaperoomAdmin] == 0, \"ERROR: User already has an escape room account\");\r\n\r\n        EscapeRoomCounter += 1;\r\n\r\n        EscaperoomAdmins[_EscaperoomAdmin] = EscapeRoomCounter;\r\n\r\n        s_Escaperoom memory tmpEscaperoom;\r\n        tmpEscaperoom._Id = EscapeRoomCounter;\r\n        tmpEscaperoom._Name = _Name;\r\n        tmpEscaperoom._Admin = _EscaperoomAdmin;\r\n        tmpEscaperoom._TotalCollectables = _FreeCollectables;\r\n        tmpEscaperoom._enabled = true;\r\n\r\n        Escaperooms[EscapeRoomCounter] = tmpEscaperoom;\r\n        _mint(_EscaperoomAdmin, EscapeRoomCounter, _FreeCollectables, \"\");\r\n\r\n    }\r\n\r\n    // Function to reqard a visitor with a collectable\r\n    // Only possible for EscaperoomAdmin\r\n    // Emit event after reward for visitor App\r\n    function rewardVisitor(uint _id, address _visitor) public {\r\n        require(EscaperoomAdmins[msg.sender] == _id, \"ERROR: User is not an admin of the Escaperoom!\");\r\n        require(balanceOf(_visitor, _id) == 0, \"ERROR: User has collectable already\");\r\n        safeTransferFrom(msg.sender,_visitor,_id,1,\"0x\");\r\n\r\n        // Emit event\r\n        emit visitorRewarded(_visitor, _id);\r\n    }\r\n\r\n    // Function to reqard a visitor with a collectable\r\n    // Only possible for EscaperoomAdmin\r\n    // Emit event after reward for visitor App\r\n    function rewardVisitorBatch(uint _id, address[] memory _visitors) public {\r\n        require(EscaperoomAdmins[msg.sender] == _id, \"ERROR: User is not an admin of the Escaperoom!\");\r\n\r\n        for (uint256 i = 0; i < _visitors.length; ++i) {\r\n            // Only reward visitor who haven't finished the room yet\r\n            if (balanceOf(_visitors[i], _id) == 0) {\r\n                safeTransferFrom(msg.sender,_visitors[i],_id,1,\"0x\");\r\n\r\n                // Emit event\r\n                emit visitorRewarded(_visitors[i], _id);\r\n            }\r\n        }\r\n    }\r\n\r\n    // Mint new collectables for escaperoom\r\n    // Only for Admins of the escaperoom\r\n    // Needs ether to buy collectibles\r\n    function mint(uint _id, uint _Amount) payable public {\r\n        require(EscaperoomAdmins[msg.sender] == _id, \"ERROR: User is not an admin of the Escaperoom!\");\r\n        require(_Amount > 0, \"ERROR: _Amount must be > 0\");\r\n        require(msg.value == (_Amount * PricePerCollectable), \"ERROR: Too much/less ether sent\");\r\n\r\n        address EscaperoomAdmin = Escaperooms[_id]._Admin;\r\n        _mint(EscaperoomAdmin, _id, _Amount, \"\");\r\n        Escaperooms[_id]._TotalCollectables += _Amount;\r\n    }\r\n\r\n    // Mint new collectables for escaperoom\r\n    // Only for contract admins\r\n    // Does not need Ether, free collectables!\r\n    function mintAdmin(uint _id, uint _Amount) public {\r\n        require(hasRole(DEFAULT_ADMIN_ROLE,msg.sender) == true, \"ERROR: Calling address does not have DEFAULT_ADMIN_ROLE role\");\r\n        require(_Amount > 0, \"ERROR: _Amount must be > 0\");\r\n\r\n        address EscaperoomAdmin = Escaperooms[_id]._Admin;\r\n        _mint(EscaperoomAdmin, _id, _Amount, \"\");\r\n        Escaperooms[_id]._TotalCollectables += _Amount;\r\n    }\r\n\r\n    // Set new price per collectable\r\n    // Only for contract admins\r\n    function setPricePerCollectable(uint _newPricePerCollectable) public {\r\n        require(hasRole(DEFAULT_ADMIN_ROLE,msg.sender) == true, \"ERROR: Calling address does not have DEFAULT_ADMIN_ROLE role\");\r\n        require(_newPricePerCollectable >= 0, \"ERROR: _newPricePerCollectable must >= 0\");\r\n\r\n        PricePerCollectable = _newPricePerCollectable;\r\n        emit pricePerCollectableUpdated(msg.sender, _newPricePerCollectable);\r\n    }\r\n\r\n}",
  "sourcePath": "C:/Users/arnou/OneDrive - Infent/Infent/Blockchain/Escaperoom/contracts/Collectables.sol",
  "compiler": {
    "name": "solc",
    "version": "0.6.2+commit.bacdbe57.Emscripten.clang"
  },
  "schemaVersion": "3.2.5",
  "updatedAt": "2020-10-31T18:54:51.949Z",
  "networkType": "ethereum",
  "devdoc": {
    "methods": {
      "balanceOf(address,uint256)": {
        "details": "See {IERC1155-balanceOf}.     * Requirements:     * - `account` cannot be the zero address."
      },
      "balanceOfBatch(address[],uint256[])": {
        "details": "See {IERC1155-balanceOfBatch}.     * Requirements:     * - `accounts` and `ids` must have the same length."
      },
      "getRoleAdmin(bytes32)": {
        "details": "Returns the admin role that controls `role`. See {grantRole} and {revokeRole}.     * To change a role's admin, use {_setRoleAdmin}."
      },
      "getRoleMember(bytes32,uint256)": {
        "details": "Returns one of the accounts that have `role`. `index` must be a value between 0 and {getRoleMemberCount}, non-inclusive.     * Role bearers are not sorted in any particular way, and their ordering may change at any point.     * WARNING: When using {getRoleMember} and {getRoleMemberCount}, make sure you perform all queries on the same block. See the following https://forum.openzeppelin.com/t/iterating-over-elements-on-enumerableset-in-openzeppelin-contracts/2296[forum post] for more information."
      },
      "getRoleMemberCount(bytes32)": {
        "details": "Returns the number of accounts that have `role`. Can be used together with {getRoleMember} to enumerate all bearers of a role."
      },
      "grantRole(bytes32,address)": {
        "details": "Grants `role` to `account`.     * If `account` had not been already granted `role`, emits a {RoleGranted} event.     * Requirements:     * - the caller must have ``role``'s admin role."
      },
      "hasRole(bytes32,address)": {
        "details": "Returns `true` if `account` has been granted `role`."
      },
      "isApprovedForAll(address,address)": {
        "details": "See {IERC1155-isApprovedForAll}."
      },
      "mint(address,uint256,uint256,bytes)": {
        "details": "Creates `amount` new tokens for `to`, of token type `id`.     * See {ERC1155-_mint}.     * Requirements:     * - the caller must have the `MINTER_ROLE`."
      },
      "mintBatch(address,uint256[],uint256[],bytes)": {
        "details": "xref:ROOT:erc1155.adoc#batch-operations[Batched] variant of {mint}."
      },
      "pause()": {
        "details": "Pauses all token transfers.     * See {ERC1155Pausable} and {Pausable-_pause}.     * Requirements:     * - the caller must have the `PAUSER_ROLE`."
      },
      "paused()": {
        "details": "Returns true if the contract is paused, and false otherwise."
      },
      "renounceRole(bytes32,address)": {
        "details": "Revokes `role` from the calling account.     * Roles are often managed via {grantRole} and {revokeRole}: this function's purpose is to provide a mechanism for accounts to lose their privileges if they are compromised (such as when a trusted device is misplaced).     * If the calling account had been granted `role`, emits a {RoleRevoked} event.     * Requirements:     * - the caller must be `account`."
      },
      "revokeRole(bytes32,address)": {
        "details": "Revokes `role` from `account`.     * If `account` had been granted `role`, emits a {RoleRevoked} event.     * Requirements:     * - the caller must have ``role``'s admin role."
      },
      "safeBatchTransferFrom(address,address,uint256[],uint256[],bytes)": {
        "details": "See {IERC1155-safeBatchTransferFrom}."
      },
      "safeTransferFrom(address,address,uint256,uint256,bytes)": {
        "details": "See {IERC1155-safeTransferFrom}."
      },
      "setApprovalForAll(address,bool)": {
        "details": "See {IERC1155-setApprovalForAll}."
      },
      "supportsInterface(bytes4)": {
        "details": "See {IERC165-supportsInterface}.     * Time complexity O(1), guaranteed to always use less than 30 000 gas."
      },
      "unpause()": {
        "details": "Unpauses all token transfers.     * See {ERC1155Pausable} and {Pausable-_unpause}.     * Requirements:     * - the caller must have the `PAUSER_ROLE`."
      },
      "uri(uint256)": {
        "details": "See {IERC1155MetadataURI-uri}.     * This implementation returns the same URI for *all* token types. It relies on the token type ID substitution mechanism https://eips.ethereum.org/EIPS/eip-1155#metadata[defined in the EIP].     * Clients calling this function must replace the `\\{id\\}` substring with the actual token type ID."
      }
    }
  },
  "userdoc": {
    "methods": {}
  }
}